:020000040800F2
:100000004004002045010008A5050008A7050008D8
:10001000AB050008AF050008B305000800000000AC
:10002000000000000000000000000000B70500080C
:10003000B905000800000000BB050008BD05000868
:100040005F0100085F0100085F0100085F01000810
:100050005F0100085F0100085F0100085F01000800
:100060005F0100085F0100085F0100085F010008F0
:100070005F0100085F0100085F0100085F010008E0
:100080005F0100085F0100085F0100085F010008D0
:100090005F0100085F0100085F0100085F010008C0
:1000A0005F0100085F0100085F0100085F010008B0
:1000B0005F0100085F0100085F0100085F010008A0
:1000C0005F0100085F0100085F0100085F01000890
:1000D0005F0100085F0100085F0100085F01000880
:1000E0005F0100085F0100085F0100085F01000870
:1000F0005F0100085F0100085F0100085F01000860
:100100005F0100085F0100085F0100085F0100084F
:100110005F0100085F0100085F0100085F0100083F
:100120005F0100085F0100085F0100085F0100082F
:10013000DFF80CD002F0EEF8004800475504000844
:10014000400400200648804706480047FEE7FEE7D7
:10015000FEE7FEE7FEE7FEE7FEE7FEE7FEE7FEE777
:10016000552100083101000800BF0100A0F1010085
:10017000FBD1704710B504466C2C4DD006DC622CC8
:1001800020D0652C5DD0662C70D106E0712C6FD02C
:10019000722C2CD0732CF7D17FE04FF48071DE48A5
:1001A00001F0F1F84FF40071DB4801F0EEF8402166
:1001B000D94801F0E8F88021D74801F0E6F8D7489F
:1001C000047095E04FF48071D34801F0DEF84FF4ED
:1001D0000071D14801F0D7F84021CF4801F0D5F89F
:1001E0008021CD4801F0CFF8CC48047080E04FF476
:1001F0008071C94801F0C9F84FF40071C64801F098
:10020000C2F84021C44801F0BEF88021C24801F084
:10021000BCF8C24804706BE04FF48071BE4801F036
:10022000B2F84FF40071BC4801F0AFF84021BA4871
:1002300001F0ABF88021B84801F0A5F8B748047088
:1002400056E04FF48071B44801F09DF84FF400710E
:10025000B14801F09AF84021AF4801F096F88021AA
:10026000AD4801F092F8AD48047041E02AE0FFE7A4
:100270004FF48071A84801F088F84FF40071A64847
:1002800001F083F84021A44801F07DF88021A248C4
:1002900001F07BF8A14804702AE04FF480719E4879
:1002A00001F073F84FF400719B4801F06EF84021A3
:1002B000994801F06AF88021974801F066F897485C
:1002C000047015E04FF48071934801F05EF84FF42C
:1002D0000071914801F059F840218F4801F055F81C
:1002E00080218D4801F051F873208C49087000BFBF
:1002F00000BF10BD10B58A4800888A4908600846CA
:10030000016889A002F018F88648006801F0A2FF91
:100310000446894901F0A8FF01D2012010BD002048
:10032000FCE710B5854800888549086008460168E3
:1003300084A002F001F88248006801F08BFF0446B7
:100340007D4901F091FF01D2012010BD0020FCE7A2
:1003500010B54FF48071704801F015F84FF400713A
:100360006D4801F012F840216B4801F00CF8802133
:10037000694801F00AF84FF40000FFF7F5FE4FF46A
:100380008071654801F001F84FF40071624800F097
:10039000FAFF4021604800F0F8FF80215E4800F03D
:1003A000F2FF4FF40000FFF7DFFE4FF480715A4870
:1003B00000F0EBFF4FF40071574800F0E4FF4021DC
:1003C000554800F0E0FF8021534800F0DEFF4FF475
:1003D0000000FFF7C9FE4FF480714F4800F0D3FFD3
:1003E0004FF400714C4800F0D0FF40214A4800F023
:1003F000CCFF8021484800F0C6FF4FF40000FFF713
:10040000B3FE4FF48071444800F0BDFF4FF400711B
:10041000414800F0BAFF40213F4800F0B6FF80217C
:100420003D4800F0B2FF4FF40000FFF79DFE4FF48F
:100430008071394800F0A9FF4FF40071364800F090
:10044000A4FF4021344800F09EFF8021324800F094
:100450009CFF10BD00F0F4F800F0E8F800F017FA87
:100460003CA001F069FF00F019FB00F01DFBFFF755
:100470006FFF7320FFF77EFE4CE03849384801F0EB
:10048000BFF910B137A001F057FF3849344801F0E7
:10049000B7F930B3324801F024F9354908700846FD
:1004A000017834A001F048FFFFF73BFF70B93048F6
:1004B0000078662807D02E480078712803D02C4891
:1004C0000078652802D1732029490870FFF712FFD0
:1004D00068B927480078622809D173202449087038
:1004E00005E027A001F028FF7320214908700B4880
:1004F00000781F490978884208D01D480078FFF726
:1005000039FE0648017822A001F016FF4FF4C8100A
:10051000FFF72AFEB1E700000010014001000020B3
:1005200010000020080000206261636B206164639A
:100530003A2564200D0A000000002F440E00002020
:100540000400002066726F6E74206164633A256453
:10055000200D0A0068656C6C6F0D0A0082000600B1
:10056000005800406969630D0A0000004000020065
:1005700000000020726563763A2563200D0A0000B2
:100580006E6F20636F6D6D616E64200D0A00000058
:1005900063757272656E742073746174653A256355
:1005A000200D0A00704700BFFEE700BFFEE700BF56
:1005B000FEE700BFFEE770477047704770470000D6
:1005C0001FB50020ADF804004FF48040ADF80600E0
:1005D0004A20ADF808004FF48060ADF80A00000131
:1005E000ADF80C0049F6404000900121124801F09E
:1005F00002F86946104800F080FF1FBD08B50121D0
:10060000082001F0CDFA0121880501F0D6FA4FF457
:100610004060ADF8000003208DF802001C208DF82A
:1006200003006946054800F003FE08BD10B5FFF75A
:10063000E5FFFFF7C5FF10BD00580040000C01406A
:1006400000B585B0012144F2040001F0A9FA4FF48D
:100650000070ADF8100018208DF8130003208DF8FD
:10066000120004A9754800F0E3FD4FF48060ADF876
:10067000100004208DF8130004A9704800F0D8FD84
:100680004FF4E13000900020ADF80400ADF8060012
:10069000ADF80800ADF80C000C20ADF80A00694672
:1006A000674801F028FB0121654801F0B0FB05B067
:1006B00000BD70B504460D46E1B2614801F014FC7E
:1006C00000BF40215E4801F07DFC0128F9D12046A1
:1006D00070BDF0B503460D461646002729460A2E82
:1006E00003D0002008702846F0BD33B9302001F84F
:1006F000010B002008702846F6E7002B03DA2D20B6
:1007000001F8010B5B4242F210720DE093FBF2F430
:1007100004B937B104F1300001F8010B04FB1233C6
:1007200001270A2092FBF0F2002AEFDC002008707B
:100730002846D9E70FB470B586B006460CA80190DC
:1007400073E00B9800785C281CD10B98401C0B9030
:1007500000786E2809D072280FD10D21304601F0A3
:10076000C3FB0B98401C0B900BE00A21304601F0B4
:10077000BBFB0B98401C0B9003E00B98401C0B90AC
:1007800000BF4BE00B980078252840D10B98401C07
:100790000B900078642818D0732833D1019810C8C2
:1007A00001900BE02178304601F09EFB00BF402114
:1007B000304601F007FC0028F9D0641C207800289E
:1007C000F0D10B98401C0B9020E0019820C80190BC
:1007D0000A2202A92846FFF77CFF02AC0BE0217831
:1007E000304601F081FB00BF4021304601F0EAFBBA
:1007F0000028F9D0641C20780028F0D10B98401C08
:100800000B9003E00B98401C0B9000BF06E00B9888
:1008100010F8011B0B90304601F066FB00BF402131
:10082000304601F0CFFB0028F9D00B980078002863
:1008300087D106B070BC5DF814FB000000080140D1
:100840000038014010B50121144800F09CFD022140
:10085000124800F098FD10BD08B50121102001F0EC
:100860009FF910208DF8030003208DF802004FF44B
:100870007070ADF800006946094800F0D9FC03200B
:10088000ADF800006946054800F0D2FC08BD10B57F
:10089000FFF7E2FFFFF7D6FF10BD0000000C01409C
:1008A0000010014008B50121084601F06CF9012152
:1008B0004FF4047001F074F90220ADF8000000203C
:1008C0008DF8030069467B4800F0B2FC08BD08B50E
:1008D0000121022001F057F9012148F2100001F036
:1008E0005FF90120ADF8000000208DF80300694693
:1008F000704800F09DFC08BD00B591B06E4800F056
:100900000FFB6E4806906E4807900020089001206B
:10091000099000200A900B904FF480700C9080009A
:100920000D9020200E9000020F900020109006A93C
:10093000614800F097FB01215F4800F0BEFB0020FA
:1009400001908DF8080001208DF809004FF4602017
:1009500003900020049001208DF8140001A957484D
:100960004C3800F0DCF84FF4404001F080F80523EB
:1009700001220B2151484C3800F069F901214F4800
:100980004C3800F003F901214C484C3800F0F3F8E2
:100990004A484C3800F011F900BF48484C3800F084
:1009A00011F90028F9D145484C3800F015F900BF7D
:1009B00042484C3800F015F90028F9D101213F4890
:1009C0004C3800F018F911B000BD00B591B03D48A9
:1009D00000F0A6FA3C4806903C480790002008909A
:1009E0000120099000200A900B904FF480700C9029
:1009F00080000D9020200E90C0010F9000201090DC
:100A000006A9304800F02EFB01212E4800F055FBCE
:100A1000002001908DF8080001208DF809004FF4A6
:100A2000602003900020049001208DF8140001A99B
:100A300025484C3800F073F84FF4404001F017F8A7
:100A4000052301220A2120484C3800F000F9012139
:100A50001D484C3800F09AF801211B484C3800F032
:100A60008AF819484C3800F0A8F800BF16484C38EE
:100A700000F0A8F80028F9D113484C3800F0ACF881
:100A800000BF11484C3800F0ACF80028F9D1012122
:100A90000D484C3800F0AFF811B000BD10B5FFF7AD
:100AA00001FFFFF729FF10BD10B5FFF710FFFFF79B
:100AB0008CFF10BD00100140080002404C24014092
:100AC0000E000020580402404C3C01401000002061
:100AD00010B50446FA48844208D10121401501F0BE
:100AE00079F80021601501F075F817E0F5488442A7
:100AF00008D10121001501F06DF80021201501F049
:100B000069F80BE0F048844208D10121C80301F0E4
:100B100061F800214FF4004001F05CF810BD30B5E1
:100B20000246002000235068E84C20400D790C68F4
:100B300044EA0524204350609068E54C2040D1E908
:100B400002542C434D7944EA450420439060D06A16
:100B500020F470000C7C641EE4B2234340EA03508E
:100B6000D06230BD00210160017141718160C160BE
:100B700001210174704721B1826842F00102826054
:100B800003E0826822F001028260704721B182682E
:100B900042F48072826003E0826822F48072826094
:100BA000704710B50023CBB21AB144681C434460AF
:100BB00002E044689C43446010BD816841F0080134
:100BC00081607047014600208A6812F0080F01D04A
:100BD000012000E000207047816841F0040181603D
:100BE0007047014600208A6812F0040F01D00120EE
:100BF00000E00020704721B1826842F4A0028260C8
:100C000003E0826822F4A00282607047014600205F
:100C10008A6812F4800F01D0012000E000207047A4
:100C200010B50A4600210023416821F46041531E9B
:100C300041EA4331416010BD21B1426842F4006293
:100C4000426003E0426822F4006242607047F0B5FF
:100C500004460D4600200021092D11DDE068A5F1B4
:100C60000A0606EB4607072606FA07F18843A5F1B0
:100C70000A0606EB460603FA06F10843E0600CE0BC
:100C8000206905EB4507072606FA07F1884305EBBF
:100C9000450603FA06F108432061072A0FDA606B64
:100CA000561E06EB86071F2606FA07F18843561ED6
:100CB00006EB860605FA06F10843606322E00D2A7A
:100CC0000FDA206BD61F06EB86071F2606FA07F100
:100CD0008843D61F06EB860605FA06F10843206313
:100CE00010E0E06AA2F10D0606EB86071F2606FA61
:100CF00007F18843A2F10D0606EB860605FA06F118
:100D00000843E062F0BD21B1826842F48012826043
:100D100003E0826822F48012826070470146C86C4A
:100D200080B2704766484C300068704721B1426815
:100D300042F48062426003E0426822F480624260D2
:100D4000704721B1426842F48052426003E0426839
:100D500022F48052426070470A460021816821F4E3
:100D6000E04111438160704721B1826842F4004242
:100D7000826003E0826822F400428260704721B101
:100D8000826842F40212826003E0826822F4021256
:100D900082607047014600208A6812F4001F01D06B
:100DA000012000E000207047F0B504461546002001
:100DB00000220026092911DDE068A1F10A0707EBEE
:100DC000470C072707FA0CF29043A1F10A0707EB3B
:100DD000470703FA07F21043E0600CE0206901EBDB
:100DE000410C072707FA0CF2904301EB410703FA85
:100DF00007F210432061A06BC0F30156EF1C06F10F
:100E0000010CA7EB0C0707EB870C1F2707FA0CF266
:100E10009043EF1C06F1010CA7EB0C0707EB8707CB
:100E200001FA07F21043A063F0BD10B50A46002195
:100E30000023816B21F44011531E41EA0351816369
:100E400010BD08B5002300930090009B0B44009355
:100E5000009B1A6008BD08B5024600200090009271
:100E600001F12800009B184400900098006880B2AF
:100E700008BD0A4600214168164B194011434160E4
:100E800070474162826270470A460021416821F042
:100E90001F0111434160704740B109490831096899
:100EA00041F40001064A0832116007E004490831A4
:100EB000096821F40001024A0832116070470000FD
:100EC0000024014000280140003C0140FFFEF0FFEB
:100ED000FDF7F1FFFFFD3FFF0246002013680B42C4
:100EE00001D0012000E000207047CA430260704733
:100EF00070B502460020002300240B125568CEB2C4
:100F000005EA060415681D4202D00CB1012000E07C
:100F1000002070BD00220A12D34303607047000016
:100F200001684FF6FE7211400160002101604160CE
:100F30008160C1608C49884208D18B490839496871
:100F400041F00F01884A083A51608AE0864914311D
:100F5000884208D184490839496841F0F001824A41
:100F6000083A51607DE080492831884208D17E49A5
:100F70000839496841F470617B4A083A516070E071
:100F800079493C31884208D177490839496841F4A8
:100F90007041754A083A516063E0734950318842A4
:100FA00008D171490839496841F470216E4A083AFC
:100FB000516056E06C496431884208D16A49083969
:100FC000496841F47001684A083A516049E066494D
:100FD0007831884208D164490839496841F0706124
:100FE000614A083A51603CE06049884206D1011FDD
:100FF000096841F00F01021F116032E05B491431B2
:10100000884208D15949091F096841F0F001574A3F
:10101000121F116025E055492831884208D15349F3
:10102000091F096841F47061504A121F116018E0ED
:101030004E493C31884208D14C49091F096841F4A6
:1010400070414A4A121F11600BE0484950318842F2
:1010500007D14649091F096841F47021434A121F0C
:101060001160704710B50022026847F6F0739A438A
:101070000C6A8B6823430C6923434C6923438C69B6
:101080002343CC6923434C6A23438C6A23431A438A
:101090000260CB6843600B6883604B68C36010BD1F
:1010A0000021016041608160C16001614161816135
:1010B000C161016241628162704721B1026842F000
:1010C0000102026004E002684FF6FE731A400260FB
:1010D00070471AB103680B43036002E003688B4357
:1010E00003607047416070470146486880B27047AE
:1010F00001460020002211F0805F03D01B4B083B0B
:101100001A6802E0184B083B1A680A4201D0012015
:1011100000E00020704710F0805F03D01349091FE2
:10112000086002E010490839486070470146002015
:10113000002211F0805F03D00C4B083B1A6802E0DC
:10114000094B083B1A680A4201D0012000E0002048
:10115000704710F0805F03D00449091F086002E067
:1011600001490839486070470800024008040240FD
:1011700010B50446CA48844208D10121042000F079
:1011800029FD0021042000F025FD46E0C5488442E9
:1011900008D10121082000F01DFD0021082000F0E9
:1011A00019FD3AE0C048844208D10121102000F026
:1011B00011FD0021102000F00DFD2EE0BB488442FF
:1011C00008D10121202000F005FD0021202000F0A1
:1011D00001FD22E0B648844208D10121402000F000
:1011E000F9FC0021402000F0F5FC16E0B1488442F3
:1011F00008D10121802000F0EDFC0021802000F0CA
:10120000E9FC0AE0AC48844207D10121801500F0D6
:10121000E1FC0021A01500F0DDFC10BD10B501219E
:10122000084600F0D7FC0021012000F0D3FC10BDDF
:101230002DE9F0410246002500260020002300246D
:10124000002791F803C00CF00F0591F803C01CF0C3
:10125000100F03D091F802C04CEA050591F800C0C8
:10126000BCF1000F31D0146800202BE04FF0010CCE
:101270000CFA00F3B1F800C00CEA03069E4220D13C
:1012800083004FF00F0C0CFA03F7BC4305FA03FC84
:101290004CEA040491F803C0BCF1280F06D14FF0CA
:1012A000010C0CFA00FCC2F814C00AE091F803C06B
:1012B000BCF1480F05D14FF0010C0CFA00FCC2F84C
:1012C00010C0401C0828D1D31460B1F800C0BCF194
:1012D000FF0F34DD546800202EE000F1080C4FF0C1
:1012E000010808FA0CF3B1F800C00CEA03069E42AC
:1012F00021D183004FF00F0C0CFA03F7BC4305FA21
:1013000003FC4CEA040491F803C0BCF1280F05D19A
:1013100000F1080C08FA0CF8C2F8148091F803C028
:10132000BCF1480F07D100F1080C4FF0010808FA92
:101330000CF8C2F81080401C0828CED35460BDE8D9
:10134000F0814FF6FF710180022181700421C1708C
:1013500070470246002093680B4201D0012000E054
:10136000002070470146886880B27047024600201E
:10137000D3680B4201D0012000E0002070470146F5
:10138000C86880B2704701617047416170470AB117
:10139000016100E041617047C16070474FF48032E5
:1013A0000A43826181618261826982697047024673
:1013B0000020424B18684FF68073184040EA021034
:1013C00008433E4B186070473D49C8617047F0B50F
:1013D0000A46002300240021002500F00046B6F153
:1013E000004F02D1354EF16901E0344E7168C0F30F
:1013F000034583B200F44016B6F5401F08D121F032
:1014000070612E4E766826F070662C4F7E6012E07A
:1014100000F48016B6F5801F06D1032606FA05F4FF
:10142000A14341F0706106E0460D360103FA06F66D
:10143000B14341F0706122B1460D360103FA06F660
:10144000314300F00046B6F1004F02D11B4EF1616E
:1014500001E01A4E7160F0BD30B500228B071C0F01
:101460000F2303FA04F2154B08338C1053F8243081
:101470009343124C08348D1044F8253023468C10C9
:1014800053F824308C07240F00FA04F423430B4C48
:1014900008348D1044F8253030BD0A490860704783
:1014A00000080140000C0140001001400014014000
:1014B00000180140001C01400020014000000140D4
:1014C00000002042DC00204210B50446F748844268
:1014D00009D10121480500F08AFB00214FF40010DA
:1014E00000F085FB08E00121880500F080FB002169
:1014F0004FF4800000F07BFB10BD2DE9F04385B078
:1015000004460D460026B1460427DFF8A483A688CA
:101510004FF6C0700640684600F0D5FADDF8088046
:10152000E448B8FBF0F01FFA80F946EA0906A68005
:1015300020884FF6FE71084020800026DE4928688A
:1015400088420CD828684000B8FBF0F087B2042F1E
:1015500000DA04273E4309F10100208427E0E888EF
:10156000A0F53F41FF3906D1286800EB4000B8FBE9
:10157000F0F087B209E0286800EBC00101EB001031
:10158000B8FBF0F087B247F480473805000D01D171
:1015900047F0010747F4004006434FF4967009FBFB
:1015A00000F04FF47A7190FBF1F0401C2084A68388
:1015B000208840F00100208026884FF6F530064054
:1015C000A8886989084306432680A8892989084391
:1015D000208105B0BDE8F08341F28831016000212F
:1015E00081804BF6FF71C1800021018141814FF460
:1015F00080418181704721B1028842F0010202805E
:1016000004E002884FF6FE731A400280704721B151
:10161000828842F40062828004E082884FF2FF7385
:101620001A408280704721B1828842F480528280C1
:1016300004E082884EF6FF731A408280704721B121
:10164000028842F48072028004E002884FF6FF6351
:101650001A400280704721B1028842F40072028071
:1016600004E002884FF6FF531A400280704721B110
:10167000028842F48062028004E002884FF6FF3361
:101680001A40028070470A46002181894FF6017393
:10169000194002F0FE0319438181704721B182890C
:1016A00042F00102828104E082894FF6FE731A4003
:1016B0008281704721B1028842F04002028004E03A
:1016C00002884FF6BF731A40028070471AB18388B0
:1016D0000B43838002E083888B43838070470182C1
:1016E00070470146088AC0B2704712B141F001014B
:1016F00002E04FF6FE7319400182704708B50246BA
:101700000020009000920098084400900098008803
:1017100008BD21B1028842F40042028003E0028841
:10172000C2F30E0202807047B1F5006F04D1028847
:1017300042F40062028004E002884FF2FF731A4014
:1017400002807047B1F5005F04D1028842F4005274
:10175000028004E002884DF6FF731A400280704751
:1017600021B1028842F48052028004E002884EF6E1
:10177000FF731A4002807047B1F5006F04D10288F0
:1017800042F40062028004E002884FF2FF731A40C4
:101790000280704721B1028842F02002028004E0FA
:1017A00002884FF6DF731A40028070470146088BAB
:1017B0000012704721B1028842F01002028004E05A
:1017C00002884FF6EF731A400280704721B90288F1
:1017D00042F08002028004E002884FF67F731A40D4
:1017E00002807047B1F5804F05D0828B4BF6FF73B6
:1017F0001A40828303E0828B42F4804282837047E6
:1018000070B502460024002500230020958A138B22
:101810001B0445EA030626F07F4404EA01068E42D3
:1018200001D1012000E0002070BD10B5014600206C
:10183000002300228B8A0A8B120443EA020424F05C
:101840007F4010BD0CB50246002000230193009399
:1018500000920B0F019321F07F41019B1BB1009B74
:101860001433009303E0090C009B18330093009B92
:101870001B680B4201D0012000E000200CBD0022BB
:1018800021F07F42D3438382704730B50246002067
:101890000023948801F0E06504EA154321F07F41BC
:1018A000948A0C420AD04BB1012008E00054004059
:1018B00000127A0040420F00A0860100002030BDD7
:1018C000002221F07F42D34383827047DD480068C5
:1018D00040F00100DB49086008464068DA490840EA
:1018E000D849486008460068D8490840D54908608A
:1018F0000846006820F4802008600846406820F40C
:10190000FE0048604FF41F0088607047CD490968A9
:1019100021F48031CB4A11601146096821F48021FD
:101920001160B0F5803F03D0B0F5802F0ED106E0F6
:10193000C449096841F48031C24A116007E0C149D5
:10194000096841F4A021BF4A116000E000BF00BF58
:10195000704710B501460022002300204A11012AD9
:1019600002D1B84C236806E0022A02D1B54C236AA2
:1019700001E0B44C636A01F01F02012494401C4250
:1019800001D0012000E0002010BD38B500200090FB
:101990000024002500BF3120FFF7DBFF054600983B
:1019A000401C00900098B0F5A06F01D0002DF2D03F
:1019B0003120FFF7CEFF08B1012400E000242046CB
:1019C00038BD014600209F4A106820F0F80040EA28
:1019D000C100106070479E490860704702460020B1
:1019E000984B586820F47C1042EA01031843954B49
:1019F0005860704796490866704701460020914A32
:101A0000506820F003000843506070478D484068DC
:101A100000F00C007047014600208A4A506820F010
:101A2000F00008435060704701460020854A506826
:101A300020F4E06008435060704701460020814A6E
:101A4000506820F4605040EAC1005060704729B1EE
:101A50007C4A527A02437B4B5A7204E0794A527AAA
:101A60008243784B5A7270477A4908607047014642
:101A70000020744A506820F440400843506070478A
:101A80000021754A11706F4A82F82010012802D097
:101A9000042808D103E001216F4A117004E00521F8
:101AA0006D4A117000E000BF00BF70476B490860CD
:101AB00070476449096A0143624A11627047674985
:101AC00044390860704730B500210022002400230B
:101AD0005C4D6D6805F00C0121B1042905D0082981
:101AE00023D105E05E4D056022E05D4D05601FE0FD
:101AF000544D6D6805F47012524D6D6805F48034D4
:101B0000022505EB92421CB9564D554305600BE08A
:101B10004C4D6D6815F4003F03D0524D55430560A0
:101B200002E04F4D5543056002E04D4D056000BF9A
:101B300000BF444D6D6805F0F00109094A4D6B5C2A
:101B40000568DD4045603F4D6D6805F4E061090AB8
:101B5000454D6B5C4568DD4085603A4D6D6805F428
:101B60006051C90A404D6B5C4568DD40C560354D2C
:101B70006D6805F44041890B3C4D6B5CC568B5FB55
:101B8000F3F5056130BD29B12E4A526902432D4B50
:101B90005A6104E02B4A526982432A4B5A617047CA
:101BA00029B1284A92690243264B9A6104E0254AEA
:101BB00092698243234B9A61704729B1214AD269C5
:101BC0000243204BDA6104E01E4AD26982431D4B76
:101BD000DA61704729B11B4AD2680243194BDA60B7
:101BE00004E0184AD2688243164BDA60704729B184
:101BF000144A12690243134B1A6104E0114A126934
:101C00008243104B1A61704714494039086070478D
:101C10000F49C86470470B49C87170470948406A4A
:101C200040F0807007494862704701460020054A2D
:101C300092680A4201D0012000E00020704701496B
:101C400088727047001002400000FFF8FFFFF6FEA8
:101C500000004242D800424220100240800442422A
:101C600000127A0000093D0012000020220000202E
:101C700010B50446FB48844209D101218803FFF7CF
:101C8000A9FF00214FF48040FFF7A4FF32E0F6489F
:101C9000844209D101214804FFF7A9FF00214FF434
:101CA0000030FFF7A4FF25E0F048844209D101216C
:101CB0008804FFF79CFF00214FF48020FFF797FF77
:101CC00018E0EB48844209D10121C804FFF78FFFD7
:101CD00000214FF40020FFF78AFF0BE0E548844223
:101CE00008D101210805FFF782FF00214FF4801081
:101CF000FFF77DFF10BD2DE9F04786B005460E4683
:101D00000024A24600BFA1460027B08900B100BF51
:101D10002F462C8A4CF6FF700440F08804432C8236
:101D2000AC894EF6F3100440B088318908437189BC
:101D300008430443AC81AC8A4FF6FF400440B089AD
:101D40000443AC8201A8FFF7BEFEC648874202D119
:101D5000DDF810A001E0DDF80CA0A88910F4004F18
:101D600008D00AEBCA0000EB0A1031684900B0FB4A
:101D7000F1F807E00AEBCA0000EB0A1031688900AD
:101D8000B0FBF1F86420B8FBF0F0040120096421F5
:101D900001FB1089A88910F4004F08D0322000EB15
:101DA000C900B0FBF1F000F00700044308E0322066
:101DB00000EB09106421B0FBF1F000F00F000443C8
:101DC0002C8106B0BDE8F0874FF416510160002168
:101DD0008180C18001810C21418100218181704776
:101DE00010B502460020108A4FF2FF0318400B88FE
:101DF0004C8823438C882343CC8823431843108288
:101E000010BD0021018041808180C180704721B1D7
:101E1000828942F40052828104E082894DF6FF7388
:101E20001A4082817047F0B5034600240026002541
:101E30000020A1F510676A3F00D100BF1846C1F32A
:101E4000421401F01F06012707FA06F5012C01D103
:101E50000C3004E0022C01D1103000E014301AB133
:101E600007682F43076002E00768AF430760F0BDD3
:101E70001AB1838A0B43838202E0838A8B43838275
:101E80007047028A4FF6F0731A400282028A0A43B0
:101E90000282704782894FF2FF731A4082818289E1
:101EA0000A438281704721B1828942F00202828115
:101EB00004E082894FF6FD731A4082817047028ADE
:101EC0004FF6DF731A400282028A0A430282704789
:101ED00021B1028A42F48042028204E0028A4BF677
:101EE000FF731A4002827047C1F308028280704774
:101EF00001468888C0F308007047818941F00101DC
:101F000081817047028BD2B20283028B42EA0122A6
:101F100002837047028B02F47F420283028B0A43E2
:101F20000283704721B1828A42F02002828204E05B
:101F3000828A4FF6DF731A408282704721B1828A0B
:101F400042F01002828204E0828A4FF6EF731A4058
:101F50008282704721B1828A42F00802828204E0C4
:101F6000828A4FF6F7731A408282704721B18289C4
:101F700042F40042828103E08289C2F30E02828130
:101F8000704721B1828A42F40062828204E0828A30
:101F90004FF2FF731A4082827047828A4FF6FB73BA
:101FA0001A408282828A0A438282704721B1828AE1
:101FB00042F00202828204E0828A4FF6FD731A40E8
:101FC0008282704702460020B1F5007F00D100BF39
:101FD00013880B4201D0012000E00020704701F47B
:101FE0000072B2F5007F00D100BFCA430280704783
:101FF00070B502460024002300250020A1F51066DC
:102000006A3E00D100BFC1F3421501F01F03012653
:1020100006FA03F3012D02D19689334006E0022D22
:1020200002D1168A334001E0968A33400C12012611
:1020300006FA04F41688344013B10CB1012000E014
:10204000002070BD10B500220023A1F510646A3C89
:1020500000D100BF0A1201249440A3B2DC430480E3
:1020600010BD00000038014000440040004800401E
:10207000004C0040005000400CB500200190009042
:102080006B48006840F480306949086000BF6848C8
:10209000006800F4003000900198401C0190009806
:1020A00018B90198B0F5A06FF1D16148006810F43B
:1020B000003F02D00120009001E000200090009835
:1020C000012842D15B48006840F01000594908607F
:1020D0000846006820F0030008600846006840F0E9
:1020E000020008605248406851494860084640680C
:1020F00048600846406840F4806048600846406890
:1021000020F47C1048600846406840F4E8104860BD
:102110000846006840F08070086000BF44480068CE
:1021200010F0007FFAD04248406820F00300404998
:1021300048600846406840F00200486000BF3C48E4
:10214000406800F00C000828F9D10CBD10B5FFF76D
:1021500093FF10BD10B53648006840F001003449C7
:1021600008600846406834490840314948600846DC
:102170000068324908402E4908600846006820F48B
:10218000802008600846406820F4FE0048604FF454
:102190001F008860FFF7DAFF4FF0006028490860F1
:1021A00010BD10B5002100200022214B5B6803F018
:1021B0000C0121B1042906D0082928D107E0214BC0
:1021C000214C236027E01F4B1F4C236023E0184B5A
:1021D0005B6803F47010164B5B6803F480320223D3
:1021E00003EB904022B9194B4343174C23600DE099
:1021F0000F4B5B6813F4003F04D0144B4343124C65
:10220000236003E00F4B43430F4C236003E00D4B6F
:102210000D4C236000BF00BF054B5B68C3F3031385
:102220000B4CE15C084B1B68CB40074C236010BD96
:1022300000100240002002400000FFF8FFFFF6FE01
:1022400008ED00E000127A002800002000093D009F
:102250002C000020C10F80EAE0700844CA079623D2
:10226000002100F02AB80000002801DBC0F1004086
:10227000002901DBC1F100418842704730B50B46AF
:10228000014600202022012409E021FA02F59D42A6
:1022900005D303FA02F5491B04FA02F52844151E7A
:1022A000A2F10102F1DC30BD0029A8BF7047401C3B
:1022B000490008BF20F00100704710B4B0FA80FC5C
:1022C00000FA0CF050EA010404BF10BC704749B199
:1022D000CCF1200421FA04F411FA0CF118BF012109
:1022E00021430843A3EB0C01CB1D0106000A002B80
:1022F000BEBF002010BC704700EBC3501044002943
:10230000A4BF10BC7047401C490008BF20F001006A
:1023100010BC7047064C074D06E0E06840F0010332
:1023200094E8070098471034AC42F6D3FDF704FF59
:1023300030250008502500080FB4054B10B503A93F
:10234000044A029800F018F810BC5DF814FB000075
:10235000B30600083C00002002E008C8121F08C1B4
:10236000002AFAD170477047002001E001C1121F16
:10237000002AFBD1704700002DE9FF4F8BB09A4631
:102380000F4605460026C9E0252837D100246D1CDC
:102390006649A04601222B78203B02FA03F008424E
:1023A00002D004436D1CF6E728782E2817D115F8C3
:1023B000010F44F004042A280ED06FF02F02287871
:1023C000A0F1300109290AD808EB880102EB41018C
:1023D00000EB01086D1CF2E757F8048B6D1C2878A0
:1023E00069283FD006DC002871D063280CD064280F
:1023F00004D137E0732811D075284ED052460D997C
:10240000904706F1010688E017F8040B8DF80000EC
:1024100000208DF80100E946012003E057F8049BF5
:102420004FF0FF3061074FF0000401D40AE0641C54
:1024300044450DDA8442FADB19F804100029F6D17C
:1024400006E0641C8442FCDB19F804100029F8D172
:10245000264404E019F8010B52460D999047641E7A
:10246000F8D25AE001CF4FF00A0B002804DAC0F18D
:1024700000004FF02D0102E0210504D52B218DF83D
:102480002410012103E0E10705D02021F7E70DF139
:10249000200908910CE00021F9E701CF4FF00A0B69
:1024A000F9E75946FFF7EAFE01F1300209F8012D7C
:1024B0000028F6D1ADEB090000F1200B600701D434
:1024C0004FF00108D84503DDA8EB0B0001E029E03F
:1024D00000208046002406E009A85246005D0D99C0
:1024E0009047761C641C08988442F5DB04E0302099
:1024F00052460D999047761CB8F10001A8F10108E9
:10250000F5DC05E019F8010B52460D999047761C51
:10251000BBF10001ABF1010BF4DC6D1C2878002845
:102520007FF432AF0FB03046BDE8F08F09280100CC
:10253000502500080000002040000000582300083B
:1025400090250008400000200004000068230008D7
:102550007373000000000000000000000000000095
:10256000000000000000010203040102030406074A
:10257000080902040608000000A24A040000000046
:102580000000000001020304060708090000000023
:0400000508000131BD
:00000001FF
