:020000040800F2
:100000003004002045010008C1040008C3040008B2
:10001000C7040008CB040008CF040008000000005B
:10002000000000000000000000000000D3040008F1
:10003000D504000800000000D7040008D904000817
:100040005F0100085F0100085F0100085F01000810
:100050005F0100085F0100085F0100085F01000800
:100060005F0100085F0100085F0100085F010008F0
:100070005F0100085F0100085F0100085F010008E0
:100080005F0100085F0100085F0100085F010008D0
:100090005F0100085F0100085F0100085F010008C0
:1000A0005F0100085F0100085F0100085F010008B0
:1000B0005F0100085F0100085F0100085F010008A0
:1000C0005F0100085F0100085F0100085F01000890
:1000D0005F0100085F0100085F0100085F01000880
:1000E0005F0100085F0100085F0100085F01000870
:1000F0005F0100085F0100085F0100085F01000860
:100100005F0100085F0100085F0100085F0100084F
:100110005F0100085F0100085F0100085F0100083F
:100120005F0100085F0100085F0100085F0100082F
:10013000DFF80CD001F0B6FB00480047F9030008D7
:10014000300400200648804706480047FEE7FEE7E7
:10015000FEE7FEE7FEE7FEE7FEE7FEE7FEE7FEE777
:10016000A51700083101000800BF0100A0F101003F
:10017000FBD1704710B504466C2C4DD006DC622CC8
:1001800020D0652C5DD0662C70D106E0712C6FD02C
:10019000722C2CD0732CF7D17FE04FF48071B548CE
:1001A00000F019FC4FF40071B24800F016FC402139
:1001B000B04800F010FC8021AE4800F00EFCAE48C4
:1001C000047095E04FF48071AA4800F006FC4FF4EB
:1001D0000071A84800F0FFFB4021A64800F0FDFB9D
:1001E0008021A44800F0F7FBA348047080E04FF49E
:1001F0008071A04800F0F1FB4FF400719D4800F0C1
:10020000EAFB40219B4800F0E6FB8021994800F082
:10021000E4FB994804706BE04FF48071954800F05E
:10022000DAFB4FF40071934800F0D7FB402191486E
:1002300000F0D3FB80218F4800F0CDFB8E48047086
:1002400056E04FF480718B4800F0C5FB4FF400710D
:10025000884800F0C2FB4021864800F0BEFB8021A8
:10026000844800F0BAFB8448047041E02AE0FFE7CC
:100270004FF480717F4800F0B0FB4FF400717D486F
:1002800000F0ABFB40217B4800F0A5FB80217948C2
:1002900000F0A3FB784804702AE04FF480717548A1
:1002A00000F09BFB4FF40071724800F096FB402178
:1002B000704800F092FB80216E4800F08EFB6E4883
:1002C000047015E04FF480716A4800F086FB4FF42B
:1002D0000071684800F081FB4021664800F07DFB1A
:1002E0008021644800F079FB73206349087000BFE7
:1002F00000BF10BD10B54FF480715E4800F06BFB7D
:100300004FF400715B4800F068FB4021594800F051
:1003100062FB8021574800F060FB4FF40000FFF7BC
:1003200023FF4FF48071534800F057FB4FF40071E6
:10033000504800F050FB40214E4800F04EFB802119
:100340004C4800F048FB4FF40000FFF70DFF4FF45E
:100350008071484800F041FB4FF40071454800F0BF
:100360003AFB4021434800F036FB8021414800F031
:1003700034FB4FF40000FFF7F7FE4FF480713D4867
:1003800000F029FB4FF400713A4800F026FB4021B1
:10039000384800F022FB8021364800F01CFB4FF467
:1003A0000000FFF7E1FE4FF48071324800F013FBCC
:1003B0004FF400712F4800F010FB40212D4800F051
:1003C0000CFB80212B4800F008FB4FF40000FFF7E6
:1003D000CBFE4FF48071274800F0FFFA4FF4007114
:1003E000244800F0FAFA4021224800F0F4FA802173
:1003F000204800F0F2FA10BD00F0B0F800F0A4F8C8
:1004000000F0D3F91DA001F05FFAFFF773FF73202E
:10041000FFF7B0FE2DE01B491B4800F019FD10B19D
:100420001AA001F051FA1B49174800F011FD50B114
:10043000154800F07EFC184908701848017818A08B
:1004400001F042FA02E07320134908700A4800786C
:100450001149097888420CD00F480078FFF78AFECE
:100460000548017811A001F02FFA4FF40000FFF7C2
:100470007BFED0E7001001400100002068656C6C35
:100480006F0A000082000600005800406969630D91
:100490000A000000400002000000002002000020CE
:1004A000726563763A2563200A00000063757272F4
:1004B000656E742073746174653A2563200A0000C8
:1004C000704700BFFEE700BFFEE700BFFEE700BFCA
:1004D000FEE7704770477047704700001FB5002067
:1004E000ADF804004FF48040ADF806004A20ADF8A6
:1004F00008004FF48060ADF80A000001ADF80C0070
:1005000049F6404000900121124800F09CFB6946EA
:10051000104800F01AFB1FBD08B50121082000F0AB
:1005200067FE0121880500F070FE4FF44060ADF8D1
:10053000000003208DF802001C208DF8030069469E
:10054000054800F09DF908BD10B5FFF7E5FFFFF77E
:10055000C5FF10BD00580040000C014000B585B03B
:10056000012144F2040000F043FE4FF40070ADF8A6
:10057000100018208DF8130003208DF8120004A934
:10058000754800F07DF94FF48060ADF8100004204C
:100590008DF8130004A9704800F072F94FF4E130AF
:1005A00000900020ADF80400ADF80600ADF808009A
:1005B000ADF80C000C20ADF80A006946674800F061
:1005C000C2FE0121654800F04AFF05B000BD70B5CC
:1005D00004460D46E1B2614800F0AEFF00BF402185
:1005E0005E4801F017F80128F9D1204670BDF0B53A
:1005F00003460D461646002729460A2E03D0002042
:1006000008702846F0BD33B9302001F8010B0020F6
:1006100008702846F6E7002B03DA2D2001F8010BBD
:100620005B4242F210720DE093FBF2F404B937B171
:1006300004F1300001F8010B04FB123301270A20FA
:1006400092FBF0F2002AEFDC002008702846D9E780
:100650000FB470B586B006460CA8019073E00B98F5
:1006600000785C281CD10B98401C0B9000786E28F9
:1006700009D072280FD10D21304600F05DFF0B9894
:10068000401C0B900BE00A21304600F055FF0B9800
:10069000401C0B9003E00B98401C0B9000BF4BE0FC
:1006A0000B980078252840D10B98401C0B900078BF
:1006B000642818D0732833D1019810C801900BE03A
:1006C0002178304600F038FF00BF4021304600F06E
:1006D000A1FF0028F9D0641C20780028F0D10B98E5
:1006E000401C0B9020E0019820C801900A2202A92A
:1006F0002846FFF77CFF02AC0BE02178304600F083
:100700001BFF00BF4021304600F084FF0028F9D0D5
:10071000641C20780028F0D10B98401C0B9003E05B
:100720000B98401C0B9000BF06E00B9810F8011BC3
:100730000B90304600F000FF00BF4021304600F033
:1007400069FF0028F9D00B980078002887D106B0FF
:1007500070BC5DF814FB0000000801400038014047
:1007600010B50121144800F036F90221124800F0BA
:1007700032F910BD08B50121102000F039FD10201C
:100780008DF8030003208DF802004FF47070ADF86F
:1007900000006946094800F073F80320ADF8000036
:1007A0006946054800F06CF808BD10B5FFF7E2FF98
:1007B000FFF7D6FF10BD0000000C01400010014003
:1007C00010B50446CA48844208D10121042000F033
:1007D00029FD0021042000F025FD46E0C5488442A3
:1007E00008D10121082000F01DFD0021082000F0A3
:1007F00019FD3AE0C048844208D10121102000F0E0
:1008000011FD0021102000F00DFD2EE0BB488442B8
:1008100008D10121202000F005FD0021202000F05A
:1008200001FD22E0B648844208D10121402000F0B9
:10083000F9FC0021402000F0F5FC16E0B1488442AC
:1008400008D10121802000F0EDFC0021802000F083
:10085000E9FC0AE0AC48844207D10121801500F090
:10086000E1FC0021A01500F0DDFC10BD10B5012158
:10087000084600F0D7FC0021012000F0D3FC10BD99
:100880002DE9F04102460025002600200023002427
:10089000002791F803C00CF00F0591F803C01CF07D
:1008A000100F03D091F802C04CEA050591F800C082
:1008B000BCF1000F31D0146800202BE04FF0010C88
:1008C0000CFA00F3B1F800C00CEA03069E4220D1F6
:1008D00083004FF00F0C0CFA03F7BC4305FA03FC3E
:1008E0004CEA040491F803C0BCF1280F06D14FF084
:1008F000010C0CFA00FCC2F814C00AE091F803C025
:10090000BCF1480F05D14FF0010C0CFA00FCC2F805
:1009100010C0401C0828D1D31460B1F800C0BCF14D
:10092000FF0F34DD546800202EE000F1080C4FF07A
:10093000010808FA0CF3B1F800C00CEA03069E4265
:1009400021D183004FF00F0C0CFA03F7BC4305FADA
:1009500003FC4CEA040491F803C0BCF1280F05D154
:1009600000F1080C08FA0CF8C2F8148091F803C0E2
:10097000BCF1480F07D100F1080C4FF0010808FA4C
:100980000CF8C2F81080401C0828CED35460BDE893
:10099000F0814FF6FF710180022181700421C17046
:1009A00070470246002093680B4201D0012000E00E
:1009B000002070470146886880B2704702460020D8
:1009C000D3680B4201D0012000E0002070470146AF
:1009D000C86880B2704701617047416170470AB1D1
:1009E000016100E041617047C16070474FF480329F
:1009F0000A4382618161826182698269704702462D
:100A00000020424B18684FF68073184040EA0210ED
:100A100008433E4B186070473D49C8617047F0B5C8
:100A20000A46002300240021002500F00046B6F10C
:100A3000004F02D1354EF16901E0344E7168C0F3C8
:100A4000034583B200F44016B6F5401F08D121F0EB
:100A500070612E4E766826F070662C4F7E6012E034
:100A600000F48016B6F5801F06D1032606FA05F4B9
:100A7000A14341F0706106E0460D360103FA06F627
:100A8000B14341F0706122B1460D360103FA06F61A
:100A9000314300F00046B6F1004F02D11B4EF16128
:100AA00001E01A4E7160F0BD30B500228B071C0FBB
:100AB0000F2303FA04F2154B08338C1053F824303B
:100AC0009343124C08348D1044F8253023468C1083
:100AD00053F824308C07240F00FA04F423430B4C02
:100AE00008348D1044F8253030BD0A49086070473D
:100AF00000080140000C01400010014000140140BA
:100B000000180140001C014000200140000001408D
:100B100000002042DC00204210B50446F748844221
:100B200009D10121480500F08AFB00214FF4001093
:100B300000F085FB08E00121880500F080FB002122
:100B40004FF4800000F07BFB10BD2DE9F04385B031
:100B500004460D460026B1460427DFF8A483A68884
:100B60004FF6C0700640684600F0D5FADDF8088000
:100B7000E448B8FBF0F01FFA80F946EA0906A680BF
:100B800020884FF6FE71084020800026DE49286844
:100B900088420CD828684000B8FBF0F087B2042FD8
:100BA00000DA04273E4309F10100208427E0E888A9
:100BB000A0F53F41FF3906D1286800EB4000B8FBA3
:100BC000F0F087B209E0286800EBC00101EB0010EB
:100BD000B8FBF0F087B247F480473805000D01D12B
:100BE00047F0010747F4004006434FF4967009FBB5
:100BF00000F04FF47A7190FBF1F0401C2084A68342
:100C0000208840F00100208026884FF6F53006400D
:100C1000A8886989084306432680A889298908434A
:100C2000208105B0BDE8F08341F2883101600021E8
:100C300081804BF6FF71C1800021018141814FF419
:100C400080418181704721B1028842F00102028017
:100C500004E002884FF6FE731A400280704721B10B
:100C6000828842F40062828004E082884FF2FF733F
:100C70001A408280704721B1828842F4805282807B
:100C800004E082884EF6FF731A408280704721B1DB
:100C9000028842F48072028004E002884FF6FF630B
:100CA0001A400280704721B1028842F4007202802B
:100CB00004E002884FF6FF531A400280704721B1CA
:100CC000028842F48062028004E002884FF6FF331B
:100CD0001A40028070470A46002181894FF601734D
:100CE000194002F0FE0319438181704721B18289C6
:100CF00042F00102828104E082894FF6FE731A40BD
:100D00008281704721B1028842F04002028004E0F3
:100D100002884FF6BF731A40028070471AB1838869
:100D20000B43838002E083888B438380704701827A
:100D300070470146088AC0B2704712B141F0010104
:100D400002E04FF6FE7319400182704708B5024673
:100D500000200090009200980844009000980088BD
:100D600008BD21B1028842F40042028003E00288FB
:100D7000C2F30E0202807047B1F5006F04D1028801
:100D800042F40062028004E002884FF2FF731A40CE
:100D900002807047B1F5005F04D1028842F400522E
:100DA000028004E002884DF6FF731A40028070470B
:100DB00021B1028842F48052028004E002884EF69B
:100DC000FF731A4002807047B1F5006F04D10288AA
:100DD00042F40062028004E002884FF2FF731A407E
:100DE0000280704721B1028842F02002028004E0B4
:100DF00002884FF6DF731A40028070470146088B65
:100E00000012704721B1028842F01002028004E013
:100E100002884FF6EF731A400280704721B90288AA
:100E200042F08002028004E002884FF67F731A408D
:100E300002807047B1F5804F05D0828B4BF6FF736F
:100E40001A40828303E0828B42F48042828370479F
:100E500070B502460024002500230020958A138BDC
:100E60001B0445EA030626F07F4404EA01068E428D
:100E700001D1012000E0002070BD10B50146002026
:100E8000002300228B8A0A8B120443EA020424F016
:100E90007F4010BD0CB50246002000230193009353
:100EA00000920B0F019321F07F41019B1BB1009B2E
:100EB0001433009303E0090C009B18330093009B4C
:100EC0001B680B4201D0012000E000200CBD002275
:100ED00021F07F42D3438382704730B50246002021
:100EE0000023948801F0E06504EA154321F07F4176
:100EF000948A0C420AD04BB1012008E00054004013
:100F000000127A0040420F00A0860100002030BD90
:100F1000002221F07F42D34383827047DD4800687E
:100F200040F00100DB49086008464068DA490840A3
:100F3000D849486008460068D8490840D549086043
:100F40000846006820F4802008600846406820F4C5
:100F5000FE0048604FF41F0088607047CD49096863
:100F600021F48031CB4A11601146096821F48021B7
:100F70001160B0F5803F03D0B0F5802F0ED106E0B0
:100F8000C449096841F48031C24A116007E0C1498F
:100F9000096841F4A021BF4A116000E000BF00BF12
:100FA000704710B501460022002300204A11012A93
:100FB00002D1B84C236806E0022A02D1B54C236A5C
:100FC00001E0B44C636A01F01F02012494401C420A
:100FD00001D0012000E0002010BD38B500200090B5
:100FE0000024002500BF3120FFF7DBFF05460098F5
:100FF000401C00900098B0F5A06F01D0002DF2D0F9
:101000003120FFF7CEFF08B1012400E00024204684
:1010100038BD014600209F4A106820F0F80040EAE1
:10102000C100106070479E4908607047024600206A
:10103000984B586820F47C1042EA01031843954B02
:101040005860704796490866704701460020914AEB
:10105000506820F003000843506070478D48406896
:1010600000F00C007047014600208A4A506820F0CA
:10107000F00008435060704701460020854A5068E0
:1010800020F4E06008435060704701460020814A28
:10109000506820F4605040EAC1005060704729B1A8
:1010A0007C4A527A02437B4B5A7204E0794A527A64
:1010B0008243784B5A7270477A49086070470146FC
:1010C0000020744A506820F4404008435060704744
:1010D0000021754A11706F4A82F82010012802D051
:1010E000042808D103E001216F4A117004E00521B2
:1010F0006D4A117000E000BF00BF70476B49086087
:1011000070476449096A0143624A1162704767493E
:1011100044390860704730B50021002200240023C4
:101120005C4D6D6805F00C0121B1042905D008293A
:1011300023D105E05E4D056022E05D4D05601FE0B6
:10114000544D6D6805F47012524D6D6805F480348D
:10115000022505EB92421CB9564D554305600BE044
:101160004C4D6D6815F4003F03D0524D554305605A
:1011700002E04F4D5543056002E04D4D056000BF54
:1011800000BF444D6D6805F0F00109094A4D6B5CE4
:101190000568DD4045603F4D6D6805F4E061090A72
:1011A000454D6B5C4568DD4085603A4D6D6805F4E2
:1011B0006051C90A404D6B5C4568DD40C560354DE6
:1011C0006D6805F44041890B3C4D6B5CC568B5FB0F
:1011D000F3F5056130BD29B12E4A526902432D4B0A
:1011E0005A6104E02B4A526982432A4B5A61704784
:1011F00029B1284A92690243264B9A6104E0254AA4
:1012000092698243234B9A61704729B1214AD2697E
:101210000243204BDA6104E01E4AD26982431D4B2F
:10122000DA61704729B11B4AD2680243194BDA6070
:1012300004E0184AD2688243164BDA60704729B13D
:10124000144A12690243134B1A6104E0114A1269ED
:101250008243104B1A617047144940390860704747
:101260000F49C86470470B49C87170470948406A04
:1012700040F0807007494862704701460020054AE7
:1012800092680A4201D0012000E000207047014925
:1012900088727047001002400000FFF8FFFFF6FE62
:1012A00000004242D80042422010024080044242E4
:1012B00000127A0000093D00030000201300002006
:1012C00010B50446FB48844209D101218803FFF789
:1012D000A9FF00214FF48040FFF7A4FF32E0F64859
:1012E000844209D101214804FFF7A9FF00214FF4EE
:1012F0000030FFF7A4FF25E0F048844209D1012126
:101300008804FFF79CFF00214FF48020FFF797FF30
:1013100018E0EB48844209D10121C804FFF78FFF90
:1013200000214FF40020FFF78AFF0BE0E5488442DC
:1013300008D101210805FFF782FF00214FF480103A
:10134000FFF77DFF10BD2DE9F04786B005460E463C
:101350000024A24600BFA1460027B08900B100BF0B
:101360002F462C8A4CF6FF700440F08804432C82F0
:10137000AC894EF6F3100440B08831890843718976
:1013800008430443AC81AC8A4FF6FF400440B08967
:101390000443AC8201A8FFF7BEFEC648874202D1D3
:1013A000DDF810A001E0DDF80CA0A88910F4004FD2
:1013B00008D00AEBCA0000EB0A1031684900B0FB04
:1013C000F1F807E00AEBCA0000EB0A103168890067
:1013D000B0FBF1F86420B8FBF0F0040120096421AF
:1013E00001FB1089A88910F4004F08D0322000EBCF
:1013F000C900B0FBF1F000F00700044308E0322020
:1014000000EB09106421B0FBF1F000F00F00044381
:101410002C8106B0BDE8F0874FF416510160002121
:101420008180C18001810C2141810021818170472F
:1014300010B502460020108A4FF2FF0318400B88B7
:101440004C8823438C882343CC8823431843108241
:1014500010BD0021018041808180C180704721B191
:10146000828942F40052828104E082894DF6FF7342
:101470001A4082817047F0B50346002400260025FB
:101480000020A1F510676A3F00D100BF1846C1F3E4
:10149000421401F01F06012707FA06F5012C01D1BD
:1014A0000C3004E0022C01D1103000E014301AB1ED
:1014B00007682F43076002E00768AF430760F0BD8D
:1014C0001AB1838A0B43838202E0838A8B4383822F
:1014D0007047028A4FF6F0731A400282028A0A436A
:1014E0000282704782894FF2FF731A40828182899B
:1014F0000A438281704721B1828942F002028281CF
:1015000004E082894FF6FD731A4082817047028A97
:101510004FF6DF731A400282028A0A430282704742
:1015200021B1028A42F48042028204E0028A4BF630
:10153000FF731A4002827047C1F30802828070472D
:1015400001468888C0F308007047818941F0010195
:1015500081817047028BD2B20283028B42EA012260
:1015600002837047028B02F47F420283028B0A439C
:101570000283704721B1828A42F02002828204E015
:10158000828A4FF6DF731A408282704721B1828AC5
:1015900042F01002828204E0828A4FF6EF731A4012
:1015A0008282704721B1828A42F00802828204E07E
:1015B000828A4FF6F7731A408282704721B182897E
:1015C00042F40042828103E08289C2F30E028281EA
:1015D000704721B1828A42F40062828204E0828AEA
:1015E0004FF2FF731A4082827047828A4FF6FB7374
:1015F0001A408282828A0A438282704721B1828A9B
:1016000042F00202828204E0828A4FF6FD731A40A1
:101610008282704702460020B1F5007F00D100BFF2
:1016200013880B4201D0012000E00020704701F434
:101630000072B2F5007F00D100BFCA43028070473C
:1016400070B502460024002300250020A1F5106695
:101650006A3E00D100BFC1F3421501F01F0301260D
:1016600006FA03F3012D02D19689334006E0022DDC
:1016700002D1168A334001E0968A33400C120126CB
:1016800006FA04F41688344013B10CB1012000E0CE
:10169000002070BD10B500220023A1F510646A3C43
:1016A00000D100BF0A1201249440A3B2DC4304809D
:1016B00010BD0000003801400044004000480040D8
:1016C000004C0040005000400CB5002001900090FC
:1016D0006B48006840F480306949086000BF684882
:1016E000006800F4003000900198401C01900098C0
:1016F00018B90198B0F5A06FF1D16148006810F4F5
:10170000003F02D00120009001E0002000900098EE
:10171000012842D15B48006840F010005949086038
:101720000846006820F0030008600846006840F0A2
:1017300002000860524840685149486008464068C5
:1017400048600846406840F4806048600846406849
:1017500020F47C1048600846406840F4E810486077
:101760000846006840F08070086000BF4448006888
:1017700010F0007FFAD04248406820F00300404952
:1017800048600846406840F00200486000BF3C489E
:10179000406800F00C000828F9D10CBD10B5FFF727
:1017A00093FF10BD10B53648006840F00100344981
:1017B0000860084640683449084031494860084696
:1017C0000068324908402E4908600846006820F445
:1017D000802008600846406820F4FE0048604FF40E
:1017E0001F008860FFF7DAFF4FF0006028490860AB
:1017F00010BD10B5002100200022214B5B6803F0D2
:101800000C0121B1042906D0082928D107E0214B79
:10181000214C236027E01F4B1F4C236023E0184B13
:101820005B6803F47010164B5B6803F4803202238C
:1018300003EB904022B9194B4343174C23600DE052
:101840000F4B5B6813F4003F04D0144B4343124C1E
:10185000236003E00F4B43430F4C236003E00D4B29
:101860000D4C236000BF00BF054B5B68C3F303133F
:101870000B4CE15C084B1B68CB40074C236010BD50
:1018800000100240002002400000FFF8FFFFF6FEBB
:1018900008ED00E000127A001800002000093D0069
:1018A0001C000020064C074D06E0E06840F00103F4
:1018B00094E8070098471034AC42F6D3FEF73CFC9E
:1018C000D8190008F81900080FB4054B10B503A982
:1018D000044A029800F017F810BC5DF814FB0000F1
:1018E000CF0500082C00002002E008C8121F08C124
:1018F000002AFAD170477047002001E001C1121F91
:10190000002AFBD170472DE9F84F99469246884648
:101910000546002759E0252801D0514623E0002341
:1019200015F8011F18462E2915D115F8011F04239B
:101930002A290DD06FF02F022978A1F13004092C4B
:1019400009D800EB800002EB400008446D1CF3E76F
:1019500058F8040B6D1C2A7872B3632A08D0732AD6
:1019600010D0514610464A46904707F101072BE038
:1019700018F8042B8DF8002000218DF801106E4618
:10198000012103E058F8046B4FF0FF315A074FF084
:10199000000401D409E0641C84420BDA8C42FADBB7
:1019A000325D002AF7D105E0641C8C42FCDB305D1F
:1019B0000028F9D1274405E00AE016F8010B51464A
:1019C0004A469047641EF8D26D1C28780028A2D1A0
:1019D0003846BDE8F88F0000F81900080000002024
:1019E00030000000E8180008281A00083000002025
:1019F00000040000F81800087373000000000001E4
:101A00000203040102030406070809020406080091
:101A100000A24A04000000000000000001020304CC
:081A20000607080900000000A0
:0400000508000131BD
:00000001FF
