:020000040800F2
:100000003004002045010008BD010008BF010008C0
:10001000C3010008C7010008CB0100080000000070
:10002000000000000000000000000000CF010008F8
:10003000D101000800000000D3010008D50100082C
:100040005F0100085F0100085F0100085F01000810
:100050005F0100085F0100085F0100085F01000800
:100060005F0100085F0100085F0100085F010008F0
:100070005F0100085F0100085F0100085F010008E0
:100080005F0100085F0100085F0100085F010008D0
:100090005F0100085F0100085F0100085F010008C0
:1000A0005F0100085F0100085F0100085F010008B0
:1000B0005F0100085F0100085F0100085F010008A0
:1000C0005F0100085F0100085F0100085F01000890
:1000D0005F0100085F0100085F0100085F01000880
:1000E0005F0100085F0100085F0100085F01000870
:1000F0005F0100085F0100085F0100085F01000860
:100100005F0100085F0100085F0100085F0100084F
:100110005F0100085F0100085F0100085F0100083F
:100120005F0100085F0100085F0100085F0100082F
:10013000DFF80CD001F0FEF9004800477501000817
:10014000300400200648804706480047FEE7FEE7E7
:10015000FEE7FEE7FEE7FEE7FEE7FEE7FEE7FEE777
:10016000351400083101000800BF0100A0F10100B2
:10017000FBD1704700F06AF800F05CF809A001F0CC
:10018000EBF90DE000BF0949094800F0A9FC00287F
:10019000F9D008A001F0E0F94FF40010FFF7E4FFF8
:1001A000F0E7000068656C6C6F0A00004000030017
:1001B0000054004068656C6C6F0D0A00704700BF0A
:1001C000FEE700BFFEE700BFFEE700BFFEE77047A7
:1001D00070477047704700001FB50020ADF804005D
:1001E0004BF6FF70ADF806002020ADF80800400186
:1001F000ADF80A000001ADF80C0011480090012193
:10020000104800F068FB69460E4800F0E6FA1FBD92
:1002100008B50121082000F033FE0121880500F017
:100220003CFE4FF44060ADF800006946064800F01F
:100230006FF908BD10B5FFF7EBFFFFF7CDFF10BD5D
:10024000801A060000580040000C014000B585B03F
:10025000012144F2040000F013FE4FF40070ADF8E9
:10026000100018208DF8130003208DF8120004A947
:10027000754800F04DF94FF48060ADF8100004208F
:100280008DF8130004A9704800F042F94FF4E130F2
:1002900000900020ADF80400ADF80600ADF80800AD
:1002A000ADF80C000C20ADF80A006946674800F074
:1002B00092FE0121654800F01AFF05B000BD70B53F
:1002C00004460D46E1B2614800F07EFF00BF4021C8
:1002D0005E4800F0E7FF0128F9D1204670BDF0B577
:1002E00003460D461646002729460A2E03D0002055
:1002F00008702846F0BD33B9302001F8010B00200A
:1003000008702846F6E7002B03DA2D2001F8010BD0
:100310005B4242F210720DE093FBF2F404B937B184
:1003200004F1300001F8010B04FB123301270A200D
:1003300092FBF0F2002AEFDC002008702846D9E793
:100340000FB470B586B006460CA8019073E00B9808
:1003500000785C281CD10B98401C0B9000786E280C
:1003600009D072280FD10D21304600F02DFF0B98D7
:10037000401C0B900BE00A21304600F025FF0B9843
:10038000401C0B9003E00B98401C0B9000BF4BE00F
:100390000B980078252840D10B98401C0B900078D2
:1003A000642818D0732833D1019810C801900BE04D
:1003B0002178304600F008FF00BF4021304600F0B1
:1003C00071FF0028F9D0641C20780028F0D10B9828
:1003D000401C0B9020E0019820C801900A2202A93D
:1003E0002846FFF77CFF02AC0BE02178304600F096
:1003F000EBFE00BF4021304600F054FF0028F9D04A
:10040000641C20780028F0D10B98401C0B9003E06E
:100410000B98401C0B9000BF06E00B9810F8011BD6
:100420000B90304600F0D0FE00BF4021304600F077
:1004300039FF0028F9D00B980078002887D106B042
:1004400070BC5DF814FB000000080140003801405A
:1004500010B50446CA48844208D10121042000F0A6
:1004600029FD0021042000F025FD46E0C548844216
:1004700008D10121082000F01DFD0021082000F016
:1004800019FD3AE0C048844208D10121102000F053
:1004900011FD0021102000F00DFD2EE0BB4884422C
:1004A00008D10121202000F005FD0021202000F0CE
:1004B00001FD22E0B648844208D10121402000F02D
:1004C000F9FC0021402000F0F5FC16E0B148844220
:1004D00008D10121802000F0EDFC0021802000F0F7
:1004E000E9FC0AE0AC48844207D10121801500F004
:1004F000E1FC0021A01500F0DDFC10BD10B50121CC
:10050000084600F0D7FC0021012000F0D3FC10BD0C
:100510002DE9F0410246002500260020002300249A
:10052000002791F803C00CF00F0591F803C01CF0F0
:10053000100F03D091F802C04CEA050591F800C0F5
:10054000BCF1000F31D0146800202BE04FF0010CFB
:100550000CFA00F3B1F800C00CEA03069E4220D169
:1005600083004FF00F0C0CFA03F7BC4305FA03FCB1
:100570004CEA040491F803C0BCF1280F06D14FF0F7
:10058000010C0CFA00FCC2F814C00AE091F803C098
:10059000BCF1480F05D14FF0010C0CFA00FCC2F879
:1005A00010C0401C0828D1D31460B1F800C0BCF1C1
:1005B000FF0F34DD546800202EE000F1080C4FF0EE
:1005C000010808FA0CF3B1F800C00CEA03069E42D9
:1005D00021D183004FF00F0C0CFA03F7BC4305FA4E
:1005E00003FC4CEA040491F803C0BCF1280F05D1C8
:1005F00000F1080C08FA0CF8C2F8148091F803C056
:10060000BCF1480F07D100F1080C4FF0010808FABF
:100610000CF8C2F81080401C0828CED35460BDE806
:10062000F0814FF6FF710180022181700421C170B9
:1006300070470246002093680B4201D0012000E081
:10064000002070470146886880B27047024600204B
:10065000D3680B4201D0012000E000207047014622
:10066000C86880B2704701617047416170470AB144
:10067000016100E041617047C16070474FF4803212
:100680000A438261816182618269826970470246A0
:100690000020424B18684FF68073184040EA021061
:1006A00008433E4B186070473D49C8617047F0B53C
:1006B0000A46002300240021002500F00046B6F180
:1006C000004F02D1354EF16901E0344E7168C0F33C
:1006D000034583B200F44016B6F5401F08D121F05F
:1006E00070612E4E766826F070662C4F7E6012E0A8
:1006F00000F48016B6F5801F06D1032606FA05F42D
:10070000A14341F0706106E0460D360103FA06F69A
:10071000B14341F0706122B1460D360103FA06F68D
:10072000314300F00046B6F1004F02D11B4EF1619B
:1007300001E01A4E7160F0BD30B500228B071C0F2E
:100740000F2303FA04F2154B08338C1053F82430AE
:100750009343124C08348D1044F8253023468C10F6
:1007600053F824308C07240F00FA04F423430B4C75
:1007700008348D1044F8253030BD0A4908607047B0
:1007800000080140000C014000100140001401402D
:1007900000180140001C0140002001400000014001
:1007A00000002042DC00204210B50446F748844295
:1007B00009D10121480500F08AFB00214FF4001007
:1007C00000F085FB08E00121880500F080FB002196
:1007D0004FF4800000F07BFB10BD2DE9F04385B0A5
:1007E00004460D460026B1460427DFF8A483A688F8
:1007F0004FF6C0700640684600F0D5FADDF8088074
:10080000E448B8FBF0F01FFA80F946EA0906A68032
:1008100020884FF6FE71084020800026DE492868B7
:1008200088420CD828684000B8FBF0F087B2042F4B
:1008300000DA04273E4309F10100208427E0E8881C
:10084000A0F53F41FF3906D1286800EB4000B8FB16
:10085000F0F087B209E0286800EBC00101EB00105E
:10086000B8FBF0F087B247F480473805000D01D19E
:1008700047F0010747F4004006434FF4967009FB28
:1008800000F04FF47A7190FBF1F0401C2084A683B5
:10089000208840F00100208026884FF6F530064081
:1008A000A8886989084306432680A88929890843BE
:1008B000208105B0BDE8F08341F28831016000215C
:1008C00081804BF6FF71C1800021018141814FF48D
:1008D00080418181704721B1028842F0010202808B
:1008E00004E002884FF6FE731A400280704721B17F
:1008F000828842F40062828004E082884FF2FF73B3
:100900001A408280704721B1828842F480528280EE
:1009100004E082884EF6FF731A408280704721B14E
:10092000028842F48072028004E002884FF6FF637E
:100930001A400280704721B1028842F4007202809E
:1009400004E002884FF6FF531A400280704721B13D
:10095000028842F48062028004E002884FF6FF338E
:100960001A40028070470A46002181894FF60173C0
:10097000194002F0FE0319438181704721B1828939
:1009800042F00102828104E082894FF6FE731A4030
:100990008281704721B1028842F04002028004E067
:1009A00002884FF6BF731A40028070471AB18388DD
:1009B0000B43838002E083888B43838070470182EE
:1009C00070470146088AC0B2704712B141F0010178
:1009D00002E04FF6FE7319400182704708B50246E7
:1009E0000020009000920098084400900098008831
:1009F00008BD21B1028842F40042028003E002886F
:100A0000C2F30E0202807047B1F5006F04D1028874
:100A100042F40062028004E002884FF2FF731A4041
:100A200002807047B1F5005F04D1028842F40052A1
:100A3000028004E002884DF6FF731A40028070477E
:100A400021B1028842F48052028004E002884EF60E
:100A5000FF731A4002807047B1F5006F04D102881D
:100A600042F40062028004E002884FF2FF731A40F1
:100A70000280704721B1028842F02002028004E027
:100A800002884FF6DF731A40028070470146088BD8
:100A90000012704721B1028842F01002028004E087
:100AA00002884FF6EF731A400280704721B902881E
:100AB00042F08002028004E002884FF67F731A4001
:100AC00002807047B1F5804F05D0828B4BF6FF73E3
:100AD0001A40828303E0828B42F480428283704713
:100AE00070B502460024002500230020958A138B50
:100AF0001B0445EA030626F07F4404EA01068E4201
:100B000001D1012000E0002070BD10B50146002099
:100B1000002300228B8A0A8B120443EA020424F089
:100B20007F4010BD0CB502460020002301930093C6
:100B300000920B0F019321F07F41019B1BB1009BA1
:100B40001433009303E0090C009B18330093009BBF
:100B50001B680B4201D0012000E000200CBD0022E8
:100B600021F07F42D3438382704730B50246002094
:100B70000023948801F0E06504EA154321F07F41E9
:100B8000948A0C420AD04BB1012008E00054004086
:100B900000127A0040420F00A0860100002030BD04
:100BA000002221F07F42D34383827047DD480068F2
:100BB00040F00100DB49086008464068DA49084017
:100BC000D849486008460068D8490840D5490860B7
:100BD0000846006820F4802008600846406820F439
:100BE000FE0048604FF41F0088607047CD490968D7
:100BF00021F48031CB4A11601146096821F480212B
:100C00001160B0F5803F03D0B0F5802F0ED106E023
:100C1000C449096841F48031C24A116007E0C14902
:100C2000096841F4A021BF4A116000E000BF00BF85
:100C3000704710B501460022002300204A11012A06
:100C400002D1B84C236806E0022A02D1B54C236ACF
:100C500001E0B44C636A01F01F02012494401C427D
:100C600001D0012000E0002010BD38B50020009028
:100C70000024002500BF3120FFF7DBFF0546009868
:100C8000401C00900098B0F5A06F01D0002DF2D06C
:100C90003120FFF7CEFF08B1012400E000242046F8
:100CA00038BD014600209F4A106820F0F80040EA55
:100CB000C100106070479E490860704702460020DE
:100CC000984B586820F47C1042EA01031843954B76
:100CD0005860704796490866704701460020914A5F
:100CE000506820F003000843506070478D4840680A
:100CF00000F00C007047014600208A4A506820F03E
:100D0000F00008435060704701460020854A506853
:100D100020F4E06008435060704701460020814A9B
:100D2000506820F4605040EAC1005060704729B11B
:100D30007C4A527A02437B4B5A7204E0794A527AD7
:100D40008243784B5A7270477A490860704701466F
:100D50000020744A506820F44040084350607047B7
:100D60000021754A11706F4A82F82010012802D0C4
:100D7000042808D103E001216F4A117004E0052125
:100D80006D4A117000E000BF00BF70476B490860FA
:100D900070476449096A0143624A116270476749B2
:100DA00044390860704730B5002100220024002338
:100DB0005C4D6D6805F00C0121B1042905D00829AE
:100DC00023D105E05E4D056022E05D4D05601FE02A
:100DD000544D6D6805F47012524D6D6805F4803401
:100DE000022505EB92421CB9564D554305600BE0B8
:100DF0004C4D6D6815F4003F03D0524D55430560CE
:100E000002E04F4D5543056002E04D4D056000BFC7
:100E100000BF444D6D6805F0F00109094A4D6B5C57
:100E20000568DD4045603F4D6D6805F4E061090AE5
:100E3000454D6B5C4568DD4085603A4D6D6805F455
:100E40006051C90A404D6B5C4568DD40C560354D59
:100E50006D6805F44041890B3C4D6B5CC568B5FB82
:100E6000F3F5056130BD29B12E4A526902432D4B7D
:100E70005A6104E02B4A526982432A4B5A617047F7
:100E800029B1284A92690243264B9A6104E0254A17
:100E900092698243234B9A61704729B1214AD269F2
:100EA0000243204BDA6104E01E4AD26982431D4BA3
:100EB000DA61704729B11B4AD2680243194BDA60E4
:100EC00004E0184AD2688243164BDA60704729B1B1
:100ED000144A12690243134B1A6104E0114A126961
:100EE0008243104B1A6170471449403908607047BB
:100EF0000F49C86470470B49C87170470948406A78
:100F000040F0807007494862704701460020054A5A
:100F100092680A4201D0012000E000207047014998
:100F200088727047001002400000FFF8FFFFF6FED5
:100F300000004242D8004242201002408004424257
:100F400000127A0000093D0000000020100000207F
:100F500010B50446FB48844209D101218803FFF7FC
:100F6000A9FF00214FF48040FFF7A4FF32E0F648CC
:100F7000844209D101214804FFF7A9FF00214FF461
:100F80000030FFF7A4FF25E0F048844209D1012199
:100F90008804FFF79CFF00214FF48020FFF797FFA4
:100FA00018E0EB48844209D10121C804FFF78FFF04
:100FB00000214FF40020FFF78AFF0BE0E548844250
:100FC00008D101210805FFF782FF00214FF48010AE
:100FD000FFF77DFF10BD2DE9F04786B005460E46B0
:100FE0000024A24600BFA1460027B08900B100BF7F
:100FF0002F462C8A4CF6FF700440F08804432C8264
:10100000AC894EF6F3100440B088318908437189E9
:1010100008430443AC81AC8A4FF6FF400440B089DA
:101020000443AC8201A8FFF7BEFEC648874202D146
:10103000DDF810A001E0DDF80CA0A88910F4004F45
:1010400008D00AEBCA0000EB0A1031684900B0FB77
:10105000F1F807E00AEBCA0000EB0A1031688900DA
:10106000B0FBF1F86420B8FBF0F004012009642122
:1010700001FB1089A88910F4004F08D0322000EB42
:10108000C900B0FBF1F000F00700044308E0322093
:1010900000EB09106421B0FBF1F000F00F000443F5
:1010A0002C8106B0BDE8F0874FF416510160002195
:1010B0008180C18001810C214181002181817047A3
:1010C00010B502460020108A4FF2FF0318400B882B
:1010D0004C8823438C882343CC88234318431082B5
:1010E00010BD0021018041808180C180704721B105
:1010F000828942F40052828104E082894DF6FF73B6
:101100001A4082817047F0B503460024002600256E
:101110000020A1F510676A3F00D100BF1846C1F357
:10112000421401F01F06012707FA06F5012C01D130
:101130000C3004E0022C01D1103000E014301AB160
:1011400007682F43076002E00768AF430760F0BD00
:101150001AB1838A0B43838202E0838A8B438382A2
:101160007047028A4FF6F0731A400282028A0A43DD
:101170000282704782894FF2FF731A40828182890E
:101180000A438281704721B1828942F00202828142
:1011900004E082894FF6FD731A4082817047028A0B
:1011A0004FF6DF731A400282028A0A4302827047B6
:1011B00021B1028A42F48042028204E0028A4BF6A4
:1011C000FF731A4002827047C1F3080282807047A1
:1011D00001468888C0F308007047818941F0010109
:1011E00081817047028BD2B20283028B42EA0122D4
:1011F00002837047028B02F47F420283028B0A4310
:101200000283704721B1828A42F02002828204E088
:10121000828A4FF6DF731A408282704721B1828A38
:1012200042F01002828204E0828A4FF6EF731A4085
:101230008282704721B1828A42F00802828204E0F1
:10124000828A4FF6F7731A408282704721B18289F1
:1012500042F40042828103E08289C2F30E0282815D
:10126000704721B1828A42F40062828204E0828A5D
:101270004FF2FF731A4082827047828A4FF6FB73E7
:101280001A408282828A0A438282704721B1828A0E
:1012900042F00202828204E0828A4FF6FD731A4015
:1012A0008282704702460020B1F5007F00D100BF66
:1012B00013880B4201D0012000E00020704701F4A8
:1012C0000072B2F5007F00D100BFCA4302807047B0
:1012D00070B502460024002300250020A1F5106609
:1012E0006A3E00D100BFC1F3421501F01F03012681
:1012F00006FA03F3012D02D19689334006E0022D50
:1013000002D1168A334001E0968A33400C1201263E
:1013100006FA04F41688344013B10CB1012000E041
:10132000002070BD10B500220023A1F510646A3CB6
:1013300000D100BF0A1201249440A3B2DC43048010
:1013400010BD00000038014000440040004800404B
:10135000004C0040005000400CB50020019000906F
:101360006B48006840F480306949086000BF6848F5
:10137000006800F4003000900198401C0190009833
:1013800018B90198B0F5A06FF1D16148006810F468
:10139000003F02D00120009001E000200090009862
:1013A000012842D15B48006840F0100059490860AC
:1013B0000846006820F0030008600846006840F016
:1013C0000200086052484068514948600846406839
:1013D00048600846406840F48060486008464068BD
:1013E00020F47C1048600846406840F4E8104860EB
:1013F0000846006840F08070086000BF44480068FC
:1014000010F0007FFAD04248406820F003004049C5
:1014100048600846406840F00200486000BF3C4811
:10142000406800F00C000828F9D10CBD10B5FFF79A
:1014300093FF10BD10B53648006840F001003449F4
:101440000860084640683449084031494860084609
:101450000068324908402E4908600846006820F4B8
:10146000802008600846406820F4FE0048604FF481
:101470001F008860FFF7DAFF4FF00060284908601E
:1014800010BD10B5002100200022214B5B6803F045
:101490000C0121B1042906D0082928D107E0214BED
:1014A000214C236027E01F4B1F4C236023E0184B87
:1014B0005B6803F47010164B5B6803F48032022300
:1014C00003EB904022B9194B4343174C23600DE0C6
:1014D0000F4B5B6813F4003F04D0144B4343124C92
:1014E000236003E00F4B43430F4C236003E00D4B9D
:1014F0000D4C236000BF00BF054B5B68C3F30313B3
:101500000B4CE15C084B1B68CB40074C236010BDC3
:1015100000100240002002400000FFF8FFFFF6FE2E
:1015200008ED00E000127A001400002000093D00E0
:1015300018000020064C074D06E0E06840F001036B
:1015400094E8070098471034AC42F6D3FEF7F4FD58
:10155000A8150008C8150008014A024900F013B890
:10156000BF0200082800002002E008C8121F08C1BE
:10157000002AFAD170477047002001E001C1121F14
:10158000002AFBD170472DE9F04116460F4604466C
:10159000002503E03946B0476D1C641C2078002804
:1015A000F8D12846BDE8F081C815000800000020E9
:1015B0002C00000068150008F41500082C0000201D
:1015C0000404000078150008000000000102030474
:1015D00001020304060708090204060800A24A04DF
:1015E00000000000000000000102030406070809D3
:0415F00000000000F7
:0400000508000131BD
:00000001FF
