:020000040800F2
:1000000000040020DF010008550200085702000824
:100010005B0200085F0200086302000800000000A5
:10002000000000000000000000000000670200085F
:1000300069020008000000006B0200086D02000861
:10004000FF010008FF010008FF010008FF01000890
:10005000FF010008FF010008FF010008FF01000880
:10006000FF010008FF010008FF010008FF01000870
:10007000FF010008FF010008FF010008FF01000860
:10008000FF010008FF010008FF010008FF01000850
:10009000FF010008FF010008FF010008FF01000840
:1000A000FF010008FF010008FF010008FF01000830
:1000B000FF010008FF010008FF010008FF01000820
:1000C000FF010008FF010008FF010008FF01000810
:1000D000FF010008FF010008FF010008FF01000800
:1000E000FF010008FF010008FF010008FF010008F0
:1000F000FF010008FF010008FF010008FF010008E0
:10010000FF010008FF010008FF010008FF010008CF
:10011000FF010008FF010008FF010008FF010008BF
:10012000FF010008FF010008FF010008FF010008AF
:1001300000F002F800F042F80AA090E8000C8244B7
:100140008344AAF10107DA4501D100F037F8AFF294
:10015000090EBAE80F0013F0010F18BFFB1A43F0A5
:100160000103184784170000A4170000103A24BFA9
:1001700078C878C1FAD8520724BF30C830C144BF0C
:1001800004680C607047000000230024002500264E
:10019000103A28BF78C1FBD8520728BF30C148BFEA
:1001A0000B6070471FB59DE8030001F067F900F090
:1001B00021FF1FBD10B500F086FF10BD00F0E9FF64
:1001C0001146FFF7EFFF00F033F801F001F903B437
:1001D000FFF7F0FF03BC01F0E3FA000070470B48A3
:1001E00080470B4981F308880A480047FEE7FEE78D
:1001F000FEE7FEE7FEE7FEE7FEE7FEE7FEE7FEE7D7
:1002000005480649044A064B70470000DD01000816
:1002100080030020310100088001002080030020BD
:100220008001002000BF0100A0F10100FBD1704758
:1002300000F01EF805A000F09FFE06E003A000F00D
:100240009BFE4FF40030FFF7EDFFF7E768656C6C3D
:100250006F0A0000704700BFFEE700BFFEE700BF67
:10026000FEE700BFFEE77047704770477047000029
:1002700000B585B0012144F2040000F011FC4FF4F8
:100280000070ADF8100018208DF8130003208DF8D1
:10029000120004A9754800F04DF94FF48060ADF8E4
:1002A000100004208DF8130004A9704800F042F9F2
:1002B0004FF4E13000900020ADF80400ADF80600E6
:1002C000ADF80800ADF80C000C20ADF80A00694646
:1002D000674800F090FC0121654800F018FD05B06A
:1002E00000BD70B504460D46E1B2614800F07CFDEA
:1002F00000BF40215E4800F0E5FD0128F9D120460D
:1003000070BDF0B503460D461646002729460A2E55
:1003100003D0002008702846F0BD33B9302001F822
:10032000010B002008702846F6E7002B03DA2D2089
:1003300001F8010B5B4242F210720DE093FBF2F404
:1003400004B937B104F1300001F8010B04FB12339A
:1003500001270A2092FBF0F2002AEFDC002008704F
:100360002846D9E70FB470B586B006460CA80190B0
:1003700073E00B9800785C281CD10B98401C0B9004
:1003800000786E2809D072280FD10D21304600F078
:100390002BFD0B98401C0B900BE00A21304600F01F
:1003A00023FD0B98401C0B9003E00B98401C0B9016
:1003B00000BF4BE00B980078252840D10B98401CDB
:1003C0000B900078642818D0732833D1019810C896
:1003D00001900BE02178304600F006FD00BF40217F
:1003E000304600F06FFD0028F9D0641C207800280A
:1003F000F0D10B98401C0B9020E0019820C8019090
:100400000A2202A92846FFF77CFF02AC0BE0217804
:10041000304600F0E9FC00BF4021304600F052FDBC
:100420000028F9D0641C20780028F0D10B98401CDB
:100430000B9003E00B98401C0B9000BF06E00B985C
:1004400010F8011B0B90304600F0CEFC00BF40219D
:10045000304600F037FD0028F9D00B9800780028CE
:1004600087D106B070BC5DF814FB000000080140A5
:100470000038014010B50446CA48844208D1012121
:10048000042000F027FB0021042000F023FB46E0BD
:10049000C548844208D10121082000F01BFB00213F
:1004A000082000F017FB3AE0C048844208D101213F
:1004B000102000F00FFB0021102000F00BFB2EE0BD
:1004C000BB48844208D10121202000F003FB002119
:1004D000202000F0FFFA22E0B648844208D1012132
:1004E000402000F0F7FA0021402000F0F3FA16E077
:1004F000B148844208D10121802000F0EBFA0021AC
:10050000802000F0E7FA0AE0AC48844207D10121DC
:10051000801500F0DFFA0021A01500F0DBFA10BD15
:1005200010B50121084600F0D5FA0021012000F0A5
:10053000D1FA10BD2DE9F041024600250026002029
:1005400000230024002791F803C00CF00F0591F858
:1005500003C01CF0100F03D091F802C04CEA05054F
:1005600091F800C0BCF1000F31D0146800202BE0DE
:100570004FF0010C0CFA00F3B1F800C00CEA0306CE
:100580009E4220D183004FF00F0C0CFA03F7BC43BE
:1005900005FA03FC4CEA040491F803C0BCF1280FEF
:1005A00006D14FF0010C0CFA00FCC2F814C00AE0AE
:1005B00091F803C0BCF1480F05D14FF0010C0CFAC3
:1005C00000FCC2F810C0401C0828D1D31460B1F858
:1005D00000C0BCF1FF0F34DD546800202EE000F1B4
:1005E000080C4FF0010808FA0CF3B1F800C00CEA4F
:1005F00003069E4221D183004FF00F0C0CFA03F743
:10060000BC4305FA03FC4CEA040491F803C0BCF1B6
:10061000280F05D100F1080C08FA0CF8C2F8148074
:1006200091F803C0BCF1480F07D100F1080C4FF05E
:10063000010808FA0CF8C2F81080401C0828CED334
:100640005460BDE8F0814FF6FF7101800221817096
:100650000421C17070470246002093680B4201D00C
:10066000012000E0002070470146886880B2704792
:1006700002460020D3680B4201D0012000E0002098
:1006800070470146C86880B2704701617047416198
:1006900070470AB1016100E041617047C160704775
:1006A0004FF480320A43826181618261826982698A
:1006B000704702460020424B18684FF6807318407E
:1006C00040EA021008433E4B186070473D49C8613C
:1006D0007047F0B50A46002300240021002500F0F1
:1006E0000046B6F1004F02D1354EF16901E0344EBB
:1006F0007168C0F3034583B200F44016B6F5401F9D
:1007000008D121F070612E4E766826F070662C4F6D
:100710007E6012E000F48016B6F5801F06D1032635
:1007200006FA05F4A14341F0706106E0460D36017A
:1007300003FA06F6B14341F0706122B1460D36016D
:1007400003FA06F6314300F00046B6F1004F02D13D
:100750001B4EF16101E01A4E7160F0BD30B5002210
:100760008B071C0F0F2303FA04F2154B08338C1070
:1007700053F824309343124C08348D1044F825303C
:1007800023468C1053F824308C07240F00FA04F40D
:1007900023430B4C08348D1044F8253030BD0A49F2
:1007A0000860704700080140000C01400010014043
:1007B0000014014000180140001C014000200140CD
:1007C0000000014000002042DC002042DD480068BB
:1007D00040F00100DB49086008464068DA490840FB
:1007E000D849486008460068D8490840D54908609B
:1007F0000846006820F4802008600846406820F41D
:10080000FE0048604FF41F0088607047CD490968BA
:1008100021F48031CB4A11601146096821F480210E
:100820001160B0F5803F03D0B0F5802F0ED106E007
:10083000C449096841F48031C24A116007E0C149E6
:10084000096841F4A021BF4A116000E000BF00BF69
:10085000704710B501460022002300204A11012AEA
:1008600002D1B84C236806E0022A02D1B54C236AB3
:1008700001E0B44C636A01F01F02012494401C4261
:1008800001D0012000E0002010BD38B5002000900C
:100890000024002500BF3120FFF7DBFF054600984C
:1008A000401C00900098B0F5A06F01D0002DF2D050
:1008B0003120FFF7CEFF08B1012400E000242046DC
:1008C00038BD014600209F4A106820F0F80040EA39
:1008D000C100106070479E490860704702460020C2
:1008E000984B586820F47C1042EA01031843954B5A
:1008F0005860704796490866704701460020914A43
:10090000506820F003000843506070478D484068ED
:1009100000F00C007047014600208A4A506820F021
:10092000F00008435060704701460020854A506837
:1009300020F4E06008435060704701460020814A7F
:10094000506820F4605040EAC1005060704729B1FF
:100950007C4A527A02437B4B5A7204E0794A527ABB
:100960008243784B5A7270477A4908607047014653
:100970000020744A506820F440400843506070479B
:100980000021754A11706F4A82F82010012802D0A8
:10099000042808D103E001216F4A117004E0052109
:1009A0006D4A117000E000BF00BF70476B490860DE
:1009B00070476449096A0143624A11627047674996
:1009C00044390860704730B500210022002400231C
:1009D0005C4D6D6805F00C0121B1042905D0082992
:1009E00023D105E05E4D056022E05D4D05601FE00E
:1009F000544D6D6805F47012524D6D6805F48034E5
:100A0000022505EB92421CB9564D554305600BE09B
:100A10004C4D6D6815F4003F03D0524D55430560B1
:100A200002E04F4D5543056002E04D4D056000BFAB
:100A300000BF444D6D6805F0F00109094A4D6B5C3B
:100A40000568DD4045603F4D6D6805F4E061090AC9
:100A5000454D6B5C4568DD4085603A4D6D6805F439
:100A60006051C90A404D6B5C4568DD40C560354D3D
:100A70006D6805F44041890B3C4D6B5CC568B5FB66
:100A8000F3F5056130BD29B12E4A526902432D4B61
:100A90005A6104E02B4A526982432A4B5A617047DB
:100AA00029B1284A92690243264B9A6104E0254AFB
:100AB00092698243234B9A61704729B1214AD269D6
:100AC0000243204BDA6104E01E4AD26982431D4B87
:100AD000DA61704729B11B4AD2680243194BDA60C8
:100AE00004E0184AD2688243164BDA60704729B195
:100AF000144A12690243134B1A6104E0114A126945
:100B00008243104B1A61704714494039086070479E
:100B10000F49C86470470B49C87170470948406A5B
:100B200040F0807007494862704701460020054A3E
:100B300092680A4201D0012000E00020704701497C
:100B400088727047001002400000FFF8FFFFF6FEB9
:100B500000004242D800424220100240800442423B
:100B600000127A0000093D00000000201000002063
:100B700010B50446FB48844209D101218803FFF7E0
:100B8000A9FF00214FF48040FFF7A4FF32E0F648B0
:100B9000844209D101214804FFF7A9FF00214FF445
:100BA0000030FFF7A4FF25E0F048844209D101217D
:100BB0008804FFF79CFF00214FF48020FFF797FF88
:100BC00018E0EB48844209D10121C804FFF78FFFE8
:100BD00000214FF40020FFF78AFF0BE0E548844234
:100BE00008D101210805FFF782FF00214FF4801092
:100BF000FFF77DFF10BD2DE9F04786B005460E4694
:100C00000024A24600BFA1460027B08900B100BF62
:100C10002F462C8A4CF6FF700440F08804432C8247
:100C2000AC894EF6F3100440B088318908437189CD
:100C300008430443AC81AC8A4FF6FF400440B089BE
:100C40000443AC8201A8FFF7BEFEC648874202D12A
:100C5000DDF810A001E0DDF80CA0A88910F4004F29
:100C600008D00AEBCA0000EB0A1031684900B0FB5B
:100C7000F1F807E00AEBCA0000EB0A1031688900BE
:100C8000B0FBF1F86420B8FBF0F004012009642106
:100C900001FB1089A88910F4004F08D0322000EB26
:100CA000C900B0FBF1F000F00700044308E0322077
:100CB00000EB09106421B0FBF1F000F00F000443D9
:100CC0002C8106B0BDE8F0874FF416510160002179
:100CD0008180C18001810C21418100218181704787
:100CE00010B502460020108A4FF2FF0318400B880F
:100CF0004C8823438C882343CC8823431843108299
:100D000010BD0021018041808180C180704721B1E8
:100D1000828942F40052828104E082894DF6FF7399
:100D20001A4082817047F0B5034600240026002552
:100D30000020A1F510676A3F00D100BF1846C1F33B
:100D4000421401F01F06012707FA06F5012C01D114
:100D50000C3004E0022C01D1103000E014301AB144
:100D600007682F43076002E00768AF430760F0BDE4
:100D70001AB1838A0B43838202E0838A8B43838286
:100D80007047028A4FF6F0731A400282028A0A43C1
:100D90000282704782894FF2FF731A4082818289F2
:100DA0000A438281704721B1828942F00202828126
:100DB00004E082894FF6FD731A4082817047028AEF
:100DC0004FF6DF731A400282028A0A43028270479A
:100DD00021B1028A42F48042028204E0028A4BF688
:100DE000FF731A4002827047C1F308028280704785
:100DF00001468888C0F308007047818941F00101ED
:100E000081817047028BD2B20283028B42EA0122B7
:100E100002837047028B02F47F420283028B0A43F3
:100E20000283704721B1828A42F02002828204E06C
:100E3000828A4FF6DF731A408282704721B1828A1C
:100E400042F01002828204E0828A4FF6EF731A4069
:100E50008282704721B1828A42F00802828204E0D5
:100E6000828A4FF6F7731A408282704721B18289D5
:100E700042F40042828103E08289C2F30E02828141
:100E8000704721B1828A42F40062828204E0828A41
:100E90004FF2FF731A4082827047828A4FF6FB73CB
:100EA0001A408282828A0A438282704721B1828AF2
:100EB00042F00202828204E0828A4FF6FD731A40F9
:100EC0008282704702460020B1F5007F00D100BF4A
:100ED00013880B4201D0012000E00020704701F48C
:100EE0000072B2F5007F00D100BFCA430280704794
:100EF00070B502460024002300250020A1F51066ED
:100F00006A3E00D100BFC1F3421501F01F03012664
:100F100006FA03F3012D02D19689334006E0022D33
:100F200002D1168A334001E0968A33400C12012622
:100F300006FA04F41688344013B10CB1012000E025
:100F4000002070BD10B500220023A1F510646A3C9A
:100F500000D100BF0A1201249440A3B2DC430480F4
:100F600010BD00000038014000440040004800402F
:100F7000004C0040005000400FB4044910B503AAD3
:100F8000029800F009F810BC5DF814FB7400002012
:100F90007047704770470000074B70B50D467B44A3
:100FA00000F011F80446284600F020F810B14FF088
:100FB000FF3070BD204670BD41F3FFFF01694A1C40
:100FC00002610878704700B58FB0CDE9013100218A
:100FD000059105497944CDE903101146684600F0B2
:100FE00024F90FB000BD0000E5FFFFFF007B00F01B
:100FF0008000704710B54248542100F0F6F941488E
:10100000542100F0F2F94048542100F0EEF93F4934
:101010003B483C4A3F4B08603D490A603A491960E9
:10102000531C0365481C1065012008653B48344A81
:1010300039A1784400F030F920B9384878440A38AA
:1010400000F0CCF937482F4A35A1784400F024F954
:1010500020B9344878440A3800F0C0F932482A4AA6
:101060002FA1784400F018F920B92F4878440A38A5
:1010700000F0B4F940232248DC000021224600F0B1
:10108000E7F820B125487844543800F0A7F91D4806
:1010900022464023002100F0DBF820B121487844AB
:1010A000543800F09BF9184822461023002100F024
:1010B000CFF8002806D01C487844BDE810405638C8
:1010C00000F08CB910BD104870B5006D20F001041F
:1010D0000B4800F057F90B4800F054F90A4800F0AB
:1010E00051F909E0206D20F00105204600F04AF991
:1010F000204600F073F82C46002CF3D170BD0000A0
:101100002000002074000020C800002014000020EF
:10111000180000201C00002072000000A60800003B
:1011200077000000920800007E0800000EB5CDE9AF
:10113000000100F015FB029069460120ABBE0EBD18
:1011400008B5694600900220ABBE08BD1FB58DE80A
:10115000070069460520ABBE04B010BD1FB58DE881
:101160000F0069460620ABBEF6E708B56946009059
:101170000920ABBE08BD1CB5CDE9000169460A20B7
:10118000ABBE1CBD704708B5694600900C20ABBED5
:1011900008BD754600F050F9AE4605006946534655
:1011A00020F00700854618B020B5FFF729F8BDE804
:1011B00020404FF000064FF000074FF000084FF0BE
:1011C000000B21F00701AC46ACE8C009ACE8C0094F
:1011D000ACE8C009ACE8C0098D46704770B504465C
:1011E000051F00F02FF90068002C14BF446870BD83
:1011F000002C18BFAC423CBF20466468F8D301689D
:101200000A18AA4218BF456003D12A68054611444E
:10121000016028684119A1421CBF6C6070BD616803
:10122000696021680844286070BD2DE9F0410646D8
:101230000024D6E90170F568804602E04146B847CF
:10124000641C3046A8470028F8D12046BDE8F0814C
:1012500070B5C468A50713D0650211D4B2F5807FBC
:1012600009D0B2F5007F06D0B2F5806F08D1012316
:1012700000F1240106E05D1E6FF07F46B54201D308
:10128000012070BD0161C361416024F470611143AC
:10129000C160002070BD00002DE9F0410C460746FA
:1012A0001646104600F06EF82078611C61280AD0BE
:1012B000722802D077283CD102E00125002405E005
:1012C0000225042402E0082448F2020511F8010B6B
:1012D0002B2806D0622809D011F8010C74280AD0F6
:1012E0000BE045F0030544F00204EFE745F0040588
:1012F00044F00104EAE744F0100438462146FFF7C1
:1013000015FF411C15D00021316171604FF400714F
:10131000F560F1617061200704D53046022200219A
:1013200000F00AF9306D40F0010030653046BDE84C
:10133000F0810020FBE72DE9F0410D460646104CF8
:10134000206DC10704D0410804D020F00104F7E764
:1013500022460EE0542000F0C0F807000ED0206DA9
:1013600047F00101084354212065384600F03DF85C
:101370003A4629463046BDE8F0418DE70020D6E7E1
:10138000200000202DE9F04704464FF000094FF0FF
:10139000FF37C568D4E90486A80707D0204600F0C7
:1013A0007BF93046FFF7CCFE002802DA3846BDE86C
:1013B000F087280502D54046FFF710FF4C21204654
:1013C00000F013F8206D20F0010020654846EEE79C
:1013D0000446AFF300802046FEF7F9FE10B500F09A
:1013E000A5F9BDE8104000F09BB94FF0000200B530
:1013F000134694469646203922BFA0E80C50A0E838
:101400000C50B1F12001BFF4F7AF090728BFA0E8E5
:101410000C5048BF0CC05DF804EB890028BF40F8B1
:10142000042B08BF704748BF20F8022B11F0804FF3
:1014300018BF00F8012B7047004870471C010020BE
:101440007047000000487047240100207047704733
:101450007047704738B504460A4600206946AFF326
:101460000080002808BF38BD02460099204600F0E1
:10147000A4F9012038BD012000F0F5B9F8B5AFF3AB
:101480000080054600200C46102000BF0646A81923
:10149000A0420DD9324669460020AFF30080070014
:1014A00008BF00F0E0F90098A04218BF0546C41933
:1014B000FFF7C8FF05600746F01D20F0070046193A
:1014C000284600F073F9B44208BFF8BDA21B3146AC
:1014D0003868BDE8F84000F070B970B50646FFF70F
:1014E000B1FF056806F10B0020F00704B4429CBF71
:1014F000002070BD2B466A68BAB11068A04210D3B4
:1015000004F1080188423CBF5068586007D3516815
:10151000101941601168091B016058601460101DAA
:1015200070BD13465268002AE7D121462846FFF7CE
:1015300091FF0028DED170BD2DE9F041044616462A
:101540000D464769007B80072ED03846FFF70DFE19
:1015500050BB3EB3012E02D0022E25D104E020461E
:1015600000F045F905441DE03846FFF70CFEE16840
:10157000002841F01001E16005DA204600F058F83B
:101580000120BDE8F081C9030BD56268E16A914290
:1015900000D81146A26911442269891A814200DDEE
:1015A00008460544002D01DA0220EAE7E16A606896
:1015B000E268814206D29103E06203D522F4003151
:1015C00041F01002A6690027AE4213DCE16A8142B5
:1015D00001D90B4600E0034603EB060C2369ACEB94
:1015E000030CAC4506DD814201D98C4600E08446FF
:1015F0009C4505D1A760276042F02000A5620DE060
:10160000AD1BE669AE1B8142A66000D90846C01A30
:10161000281A20605819606022F020000349084011
:10162000E060002084F84870ABE70000BFCFD7FF30
:10163000C16821F4001141F08001C1600021816086
:10164000016070472DE9F047814614460E464FF081
:10165000FF383248D5685769054209D03846A16934
:10166000FFF789FD002811DB2C48C0430540E560E9
:101670002B46324649463846FFF768FDA16920F0FF
:101680000042B21A11440028A16103D02046FFF79E
:10169000CFFF4046BDE8F08770B504460569C06AD3
:1016A0006168884200D80846E16821F42011E160B1
:1016B000C90312D5A84208D02246411B2846FFF78D
:1016C000C1FF10B14FF0FF3070BD0020E562C4E9EA
:1016D0000150E06820F48030E060002070BD10B55B
:1016E0000446C06820F02000E060A16AA06988423A
:1016F0000DD02046FFF7D0FFE06820F4405040F0C6
:101700001000E060A06AA0612069E062606044F2BD
:101710004001E0688843E06010BD00001000020056
:10172000002801D000F03CB87047000010B5014619
:1017300002A000F07FF8012010BD0000534947527D
:10174000545245443A2052656469726563743A2084
:1017500063616E2774206F70656E3A200000000090
:1017600010B5431C02E010F8011B71B18107FAD1DA
:101770004FF0013202C88C1A8C4314EAC211F9D01E
:10178000C01A0A0603D0C01E10BDC01A10BD0A043C
:1017900001D0801E10BD0902FCD0401E10BD00000B
:1017A00001491820ABBEFEE72600020000210160BF
:1017B000C0E90110704710207047034640688C460E
:1017C000002818BF88423CBF03464068F8D3186819
:1017D0001844884207D00CF1030020F00700001DD8
:1017E000411A521A0146081D0A60FFF7F7BC10B5EE
:1017F0000146C268900703D0900607D5886A0BE0BF
:1018000000F040F801210160881E10BD8B69486816
:1018100018440B69A0EB030091F8483023B191F80C
:101820004910A0EB010010BD1103FCD50028FADD22
:10183000401E10BD70B505460C460A2000E06D1C28
:1018400000F018F835B128780028F8D102E0641CBF
:1018500000F010F814B120780028F8D1BDE87040ED
:101860000A2000F007B810B500F010F8BDE81040ED
:10187000FFF756BF08B569468DF800000320ABBEE0
:1018800008BD0000004870471C01002010B5012869
:1018900005D0002103A0FFF7CDFF012010BD09A155
:1018A000F8E7000053494752544D454D3A204F75D3
:1018B00074206F662068656170206D656D6F727948
:1018C000000000003A2048656170206D656D6F7200
:1018D0007920636F72727570746564003A74740075
:1018E0003A7474003A74740008190008000000206B
:1018F000200000006C0100082819000820000020CA
:1019000060030000880100080000000001020304D9
:10191000010203040607080902040608000000008B
:081920000000000000000000BF
:0400000508000131BD
:00000001FF
